:10000000FFEF01F0F76A140FF66E000EF7220900F9
:10001000F5501200C0F9A4B0999282F880908883BC
:10002000C6A1868E000E956E966E956A8C680468E1
:10003000056895928C9295908C90086A076A18EFE3
:1000400002F08E0E006E21C001F020C002F0036AA3
:10005000015209E102C001F0026A080E005E01527D
:1000600002E1006A08D0D89001BE04D00236013601
:100070000006F9D7019E12002050D8B4A5D02C6EEE
:100080002450D8B4A1D02C5E05E37F0E2C26D8B026
:100090009BD006D0810E2C5ED8A096D0D8B494D038
:1000A0002CC000F0016A026A036A2B6A21C02AF0A0
:1000B0002A8E22C029F023C028F0190E2C6E27505A
:1000C000285E0DE2010E295E0AE22A5E08E22B5E3E
:1000D00006E22B2A2A2A292A2750282628D0265009
:1000E000295E12E2010E2A5E0FE22B5E0DE22B2A40
:1000F0002A2A265029262750282619E3292A17E1DB
:100100002A2A15E12B2A13D0255080092A5E0EE2F7
:10011000010E2B5E0BE22B2A255080092A26265041
:100120002926E9E32A2AE7E12B2AE5D703802C2EAA
:1001300001D00BD0D890283629362A362B36D890C5
:100140000336023601362D36BAD72DA006D0D89008
:100150000132023203322D3202D0000635E02DBECC
:100160001ED0D890283629362A362B362750285EBE
:1001700007E2010E295E04E22A5E02E22B5E1AE328
:100180002650295E05E2010E2A5E02E22B5E12E392
:10019000255080092A5E03E2010E2B5E0BE3032A41
:1001A00009E1022A07E1012A05E1002A0DE00132F6
:1001B0000232033221C02CF025502C1A2CAE02D072
:1001C000018E06D0019E04D0006A016A026A036AA9
:1001D00012008E0E006E2050005E21C002F022C080
:1001E00001F0028E005209E0D890025202E1015261
:1001F00004E002320132002EF7D721AE05D0011EF5
:10020000021E012AD8B4022A1200016A026A006A98
:10021000036A2C5002E12B5018E0100E2D6ED8907E
:1002200029362A36003603362C50035C02E12B5067
:10023000005C07E32B50005ED8A003062C50035E41
:10024000D880013602362D2EEAD71200000E016E3C
:10025000C250C30B0110C26E1D6A1C6A1A6A1B5081
:100260001A5C0EE2C282C2B2FED7C3501C26C45032
:100270001D22A60E006E002EFED700001A2AEFD710
:100280001DC021F01CC020F0DCDE03C023F002C042
:1002900022F001C021F000C020F0AA0E276EF10E5E
:1002A000266E020E256E800E246EE6DE03C023F05D
:1002B00002C022F001C021F000C020F08ADF02C09D
:1002C0001DF001C01CF01DC02AF01CC029F02C6AD2
:1002D0001BC02BF09ADF02C01DF001C01CF023EF01
:1002E00002F0040E016EC250C30B0110C26E1F6AF1
:1002F0001E6A1A6A1B501A5C0EE2C282C2B2FED794
:10030000C3501E26C4501F22A60E006E002EFED71C
:1003100000001A2AEFD71FC021F01EC020F091DE86
:1003200003C023F002C022F001C021F000C020F081
:10033000AA0E276EF10E266E020E256E800E246E1A
:100340009BDE03C023F002C022F001C021F000C0F8
:1003500020F03FDF02C01FF001C01EF01FC02AF0D6
:100360001EC029F02C6A1BC02BF04FDF02C01FF00B
:1003700001C01EF024EF02F030C032F0316A31507B
:1003800007080EE332BE02D08D9401D08D8496947E
:1003900096908D9096908D80D8903236312AEFD7F6
:1003A0001200956A8C6A04B802D08C9801D08C88AF
:1003B000959804BC02D08C9C01D08C8C959C04B484
:1003C00002D08C9401D08C84959495928C82F7EF16
:1003D00001F02FC030F0D0DF2EC030F0CDDF2DC0C7
:1003E00030F0CADF2CC030F0C7DF049CDAD7959E0E
:1003F0008C9E959E8C8E95928C929CEF02F0F86A62
:10040000D09E066A0D6A0E6A0F6A106A196A640E37
:100410001B6EC150C00B0F09C16E070EB46E116880
:100420001268136814681568166817681868FAD592
:10043000C050C00B0209C06EC08EC280C150C00B3C
:100440000D09C16E03D74DD71FC02AF01EC029F079
:100450002C6A0A0E2B6ED9DE02C021F001C020F0FA
:1004600002C02AF001C029F02C6A0A0E2B6ECDDEE4
:1004700000C020F003C021F003C003F00050F2CF11
:1004800022F0F29EBFDD22BEF28E226E1FC02AF045
:100490001EC029F02C6A0A0E2B6EB7DE00C023F0B6
:1004A00003C024F003C003F00050F2CF25F0F29E09
:1004B000A9DD25BEF28E256E1DC02AF01CC029F0D4
:1004C0002C6A0A0E2B6EA1DE02C027F001C026F0B6
:1004D00002C02AF001C029F02C6A0A0E2B6E95DEAC
:1004E00000C026F003C027F003C003F00050F2CF95
:1004F00028F0F29E87DD28BEF28E286E1DC02AF0FD
:100500001CC029F02C6A0A0E2B6E7FDE00C029F079
:1005100003C02AF003C003F00050F2CF2BF0F29E8C
:1005200071DD2BBEF28E2B6E22C02CF025C02DF07B
:0C05300028C02EF02F6E4DD785D7030099
:020000040030CA
:0E00000027CC3E1E0087A1000FC00FE00F406E
:00000001FF
;PIC18F4550
;CRC=BB35  CREATED="10-Aug-20 15:43"
