:100000006EEF04F0F76A140FF66E000EF722090087
:10001000F5501200C0F9A4B0999282F880908883BC
:10002000C6A1868E000E956E966E956A8C680468E1
:10003000056895928C9295908C90086A076A86EF75
:1000400004F02DC42FF404012E6B2E5107080EE38B
:100050002FBF02D08D9401D08D84969496908D9070
:1000600096908D80D8902F372E2BEFD7000112005D
:10007000956A8C6A04B802D08C9801D08C889598C7
:1000800004BC02D08C9C01D08C8C959C04B402D012
:100090008C9401D08C84959495928C82120010C01F
:1000A0002DF4CFDF0FC02DF4CCDF0EC02DF4C9DF4F
:1000B0000DC02DF4C6DF0494DBDF95968C869596F3
:1000C0008C9695928C926EEF00F004012BC410F088
:1000D000101E2CC40FF00F1E0001E1D712001A846D
:1000E0001AC02BF42AC42CF4F0DF1A941AC02BF493
:1000F0002AC42CF4EADF12001A9827C42AF4EFDF8E
:100100001200040EEA6E270EE96EEF500DE0060EA7
:10011000016E006A002EFED7012EFBD77B0E006E0B
:10012000002EFED7EF2EF3D7B7EF00F01A801A8219
:100130001A941A961A9A26C427F4DEDF100E006E5F
:10014000002EFED700000C0E0401276F0001D4DF43
:10015000100E006E002EFED70000010E0401276F66
:100160000001CADF020E0401276F0001CAD7060E84
:100170000401276F0001C0DF100E006E002EFED7B5
:1001800000001200040146514803F3CF01F0F4CF00
:1001900000F04903F350002647514803F350002074
:1001A000026E000112000401265303E0286927694A
:1001B00002D0286B276B1B6A1B501F082EE31C6A9A
:1001C0001C500F0828E3476B1BC046F4496B200EF8
:1001D000486F0001D7DF02C003F00150010F040196
:1001E000296F000E02202A6F036A1CC002F0D8900B
:1001F000023603360250292703502A231D0E2925D3
:10020000E96E000E2A21EA6E28C4ECFFED5227C4E5
:10021000EFFF1C2AD5D71B2ACFD71D80000194EFF2
:1002200004F004012851016A275D03E227C400F0AD
:100230000CD0006A080E296F273700362851005C61
:10024000D8B0006E0136292FF7D700011200040143
:1002500043511F0804E2800E4227200E435F43C42F
:100260001BF042391C6E0F0E1C1642510F0BFF0A79
:10027000100F456F442D35D0476B1BC046F4496BBA
:10028000200E486F00017EDF02C003F00150010F15
:100290000401466F000E0220476F036A1CC002F083
:1002A000D8900236033602504627035047231D0ECE
:1002B0004625016E000E4721036E01C0E9FFEA6E7C
:1002C000036A010E026E4551006E05E0D8900236B9
:1002D0000336002EFBD70250EF120350EC10EF6EE6
:1002E00039D0476B1BC046F4496B200E486F0001A4
:1002F00049DF02C003F00150010F0401466F000EF8
:100300000220476F036A1CC002F0D8900236033601
:1003100002504627035047231D0E4625016E000E4E
:100320004721036E01C0E9FFEA6E036A010E026E07
:100330004551006E05E0D89002360336002EFBD7FB
:100340000250FF0A006EFF0E031A0050EF16035012
:10035000EC14EF6E1D8000011200010E04013B6FD2
:100360003C6F416B3251345D426F425142AF03D01A
:10037000000ED8804255036A396F03C03AF43351F6
:10038000355D426F425142AF03D0000ED8804255D6
:10039000036A376F03C038F43251345D01E23B69C0
:1003A0003351355D01E23C6938513A5D3AE303E18E
:1003B0003751395D36E3D890373738373951375DA3
:1003C000006E3A51385900C03DF43E6F39513D5DE1
:1003D0003F6F3A513E59406F3A5303E14151395D05
:1003E0001FE332C442F433C443F436C444F400017E
:1003F0002EDF04013EAF08D037513D2738513E2350
:100400003B513225326F0AD03F513D2740513E23A8
:100410003B513225326F3C513325336F412BDCD7B2
:1004200035D0D89039373A373751395D006E385169
:100430003A5900C03DF43E6F37513D5D3F6F385132
:100440003E59406F385303E14151375D1FE332C4D9
:1004500042F433C443F436C444F40001F8DE04012A
:100460003EAF08D039513D273A513E233C51332508
:10047000336F0AD03F513D2740513E233B51322537
:10048000326F3C513325336F412BDCD70001120012
:1004900004012B532EE02951275D05E227C42EF4D9
:1004A00029C42FF404D029C42EF427C42FF42A51D0
:1004B000285D05E228C430F42AC431F404D02AC4EB
:1004C00030F428C431F42E512F5D12E330C42DF4E2
:1004D0002D51315D0BE32EC442F42DC443F42CC4E2
:1004E00044F40001B4DE04012D2BF2D72E2BEBD700
:1004F0002ED027C432F428C433F429C434F428C4D9
:1005000035F42CC436F4000128DF27C432F42AC4A1
:1005100033F429C434F42AC435F42CC436F41DDF72
:1005200027C432F428C433F427C434F42AC435F47D
:100530002CC436F412DF29C432F428C433F429C49D
:1005400034F42AC435F42CC436F407DF0401000166
:1005500012001A8829C42AF4C2DD12001DA06FD02F
:100560001B6A1B501F086AE31B5080090401266F99
:10057000276F0001C1DD800E0401276F0001BCDD83
:100580001C6A1C500F0858E30401476B1BC046F45B
:10059000496B200E486F0001F5DD02C003F00150E9
:1005A000010F0401266F000E0220276F036A1CC092
:1005B00002F0D89002360336025026270350272334
:1005C000010E2625016E000E2721036E01501D0F1E
:1005D000E96E000E0320EA6EEFCF26F426C429F45C
:1005E0000001B7DF0401476B1BC046F4496B200EC6
:1005F000486F0001C7DD02C003F00150010F040184
:10060000266F000E0220276F036A1CC002F0D890EC
:100610000236033602502627035027231D0E2625B7
:10062000E96E000E2721EA6EEFCF28F428C429F4E2
:1006300000018FDF1C2AA5D71B2A93D71D9012001B
:10064000200E006E002EFED700D000001EC427F43E
:10065000640E0401286F0001E4DD01C024F41EC40F
:1006600027F40A0E0401286F0001DBDD01C027F426
:100670000A0E0401286F0001D4DD00C023F41EC45B
:1006800027F40A0E0401286F0001CBDD00C025F419
:10069000090E0401276F286F640E296F120E2A6F4E
:1006A0002B6B010E2C6F0001F3DE040125510A0DA6
:1006B000F3CF26F4090E276F286F26C429F4120EF3
:1006C0002A6F010E2B6F2C6F0001E2DE090E040170
:1006D000276F1B0E286F640E296F240E2A6F2B6B59
:1006E000010E2C6F0001D4DE040123510A0DF3CF5B
:1006F00026F4090E276F1B0E286F26C429F4240E3A
:100700002A6F2B6B010E2C6F0001C2DE27DF120057
:10071000016A026A006A036A04012D5102E12C5148
:1007200018E0100E2E6FD8902A372B37003603367C
:100730002D51035C02E12C51005C07E32C51005E5B
:10074000D8A003062D51035ED880013602362E2F25
:10075000EAD7000112002BC42DF473DC2AC42DF457
:1007600070DC29C42DF46DDC28C42DF46ADC049CF3
:100770007FDC959E8C9E959E8C8E95928C926DEFD3
:1007800004F027C42BF426C42AF404012D6B0A0EAE
:100790002C6F0001BDDF00C028F4040103C029F460
:1007A00003C003F00050F2CF2AF4F29E00012ADCCD
:1007B00004012ABFF28E096E27C42BF426C42AF442
:1007C0002D6B0A0E2C6F0001A3DF02C029F401C0BB
:1007D00028F402C02BF401C02AF404012D6B0A0E88
:1007E0002C6F000195DF00C028F4040103C029F438
:1007F00003C003F00050F2CF2AF4F29E000102DCA5
:1008000004012ABFF28E0A6E27C42BF426C42AF4F0
:100810002D6B640E2C6F00017BDF02C029F401C038
:1008200028F402C02BF401C02AF404012D6B0A0E37
:100830002C6F00016DDF00C028F4040103C029F40F
:1008400003C003F00050F2CF2AF4F29E000102EC44
:1008500000F004012ABFF28E0B6E27C42BF426C4CD
:100860002AF4030E2D6FE80E2C6F000151DF02C039
:1008700029F401C028F402C02BF401C02AF40401B9
:100880002D6B0A0E2C6F000143DF00C028F4040119
:1008900003C029F403C003F00050F2CF2AF4F29E03
:1008A000000102EC00F004012ABFF28E0C6E0C5025
:1008B000C00809E10C680B50C00805E10B680A503C
:1008C000C00801E10A680CC028F40BC029F40AC072
:1008D0002AF409C02BF400013ED71200F86AD09E1A
:1008E000066A0D6A0E6A0F6A106A196AC150C00B57
:1008F0000F09C16E070EB46E116812681368146890
:10090000156816681768186812EF00F0360E0401B3
:10091000266F00010BDC300E0401266F000106DC9F
:100920000401266B00013FD4360E0401276F00013D
:100930007CEC00F0E80ED56ED76AD66A04011F6B16
:100940001FC41EF400017CDE0401276B1EC426F4C4
:10095000000117DF03DED65004011E6F1F511E5D1C
:100960000BE000016DDE0401276B1EC426F40001BC
:1009700008DF1EC41FF404011E51640803E2D76A95
:0A098000010ED66E0001E7D7030058
:020000040030CA
:0E00000027CC3E1E0087A1000FC00FE00F406E
:00000001FF
;PIC18F4550
;CRC=02F7  CREATED="29-Jun-20 13:12"
