:0400000054EF02F0C7
:08000800046ED8CF05F0E0CF33
:1000100006F00001E9CF0CF0EACF07F0E1CF08F0DD
:10002000E2CF09F0D9CF0AF0DACF0BF0F3CF12F01C
:10003000F4CF13F0FACF14F000C00EF001C00FF0AF
:1000400002C010F003C011F09DA02AEF00F09EB096
:100050005AEF00F00EC000F00FC001F010C002F027
:1000600011C003F00CC0E9FF07C0EAFF078E08C00B
:10007000E1FF09C0E2FF0AC0D9FF0BC0DAFF12C0DE
:10008000F3FF13C0F4FF14C0FAFF045006C0E0FFF2
:1000900005C0D8FF1000F2CF0DF0F29EF76AB00F46
:1000A000F66E000EF7220900F5500DBEF28E12001A
:1000B00080C094D4302A0B0ECF6EDC0ECE6E9E9094
:1000C0002AEF00F020202000202020002020200007
:1000D000444F4E4720484F3A0000000E956E966EF2
:1000E000956A8C681668176895928C9295908C909A
:1000F0001A6A196A6DEF02F03DC03FF03E6A3E5049
:1001000007080EE33FBE02D08D9401D08D849694F3
:1001100096908D9096908D80D8903F363E2AEFD75E
:100120001200956A8C6A16B802D08C9801D08C881F
:10013000959816BC02D08C9C01D08C8C959C16B4E2
:1001400002D08C9401D08C84959495928C82B7EFD8
:1001500000F022C03DF0D0DF21C03DF0CDDF20C057
:100160003DF0CADF1FC03DF0C7DF1694DAD7959681
:100170008C8695968C9695928C92C6EF00F03B50AB
:10018000206E201E3CC01FF01F1EE3D712002C80E3
:100190002CC03BF03AC03CF0F2DF2C902CC03BF07E
:1001A0003AC03CF0ECDF12002C9439C03AF0EFDF9B
:1001B000200E006E002EFED700D000001200EA6A6A
:1001C000360EE96EEF500DE0060E016E006A002E4D
:1001D000FED7012EFBD77B0E006E002EFED7EF2E32
:1001E000F3D70DEF01F02C902C922C842C96380E26
:1001F000396EDADF420E006E002EFED700000C0EC4
:10020000396ED2DF420E006E002EFED70000010EC6
:10021000396ECADF020E366ED2D7060E396EC4DFD3
:10022000420E006E002EFED7000077EF02F0036A48
:100230003650F2CF38F0F29E2EDF38BEF28E3724E1
:10024000386E396EB1DF12002C8438C03AF09FDF6F
:10025000200E006E002EFED700D000001200090014
:10026000F5520CE0F6CF36F0F7CF37F0F5CF38F097
:10027000EBDF36C0F6FF37C0F7FFF1D71200395079
:10028000016A385C03E238C000F00CD0006A080E46
:100290003A6E383600363950005CD8B0006E013600
:1002A0003A2EF7D7120036C038F0640E396EE7DF09
:1002B000300E0124336E36C038F00A0E396EDFDF9F
:1002C00001C038F00A0E396EDADF300E0024346EC9
:1002D00036C038F00A0E396ED2DF300E0024356E8B
:1002E0003350300807E1200E336E3450300802E1FD
:1002F000200E346E33C038F0A7DF34C038F0A4DFEE
:1003000035C038F0A1DF1200366A0B0E376E8FDF72
:100310002DC036F0C8DF2EC036F0C5DF2FC036F056
:10032000C2DF85EF02F0312C09D0366A0B0E376E32
:100330007EDFC40EF66E000EF76E91DF31500208BC
:1003400009E1366A0E0E376E72DFC80EF66E000EC9
:10035000F76E85DF3150030809E1366A110E376EFA
:1003600066DFCC0EF66E000EF76E79DF91EF02F0CD
:10037000938681B60FD0182A375208E13650185CA0
:1003800005E3186A010E016E07D003D0000E016E5E
:1003900003D002D0000E016ED2EF01F0376AC80E12
:1003A000366EE6D7015206E0312A3150030801E2E9
:1003B000316A326A92EF02F0938A81BA0FD0182A1A
:1003C000375208E13650185C05E3186A010E016ED9
:1003D00007D003D0000E016E03D002D0000E016ED4
:1003E000F6EF01F0376AC80E366EE6D701521EE00E
:1003F000326A3150010A05E0030A0AE0010A0FE0FF
:1004000015D02D50170802E12D6A01D02D2A0ED0EB
:100410002E503B0802E12E6A01D02E2A07D02F5021
:100420003B0802E12F6A01D02F2A00D093EF02F09F
:10043000938881B80FD0182A375208E13650185CDB
:1004400005E3186A010E016E07D003D0000E016E9D
:1004500003D002D0000E016E32EF02F0376AC80EF0
:10046000366EE6D701521EE0326A3150010A05E0CD
:10047000030A0AE0010A0FE015D02D5203E1170E1E
:100480002D6E01D02D060ED02E5203E13B0E2E6EA6
:1004900001D02E0607D02F5203E13B0E2F6E01D064
:1004A0002F0600D094EF02F0F86AD09E078E186AEB
:1004B0001F6A206A216A226A2B6A326AC150C00B05
:1004C0000F09C16E070EB46E23682468256826687C
:1004D0002768286829682A6800D6B50ECD6E0B0EED
:1004E000CF6EDC0ECE6EC00EF2129D807CD6366AC8
:1004F000376A9DDED00EF66E000EF76EB0DE306A03
:100500002F6A2E6A2D6A316AFFD6305009080DE332
:100510003050040806E3938A81AA03D0938881B8F7
:1005200002D73CD75FD79AD716D00A0E305E322A50
:100530003250140801E1316A2F2A2F503C080BE198
:100540002F6A2E2A2E503C0806E12E6A2D2A2D50A5
:0A055000180801E12D6AD8D7030056
:020000040030CA
:0E00000027CC3E1E0087A1000FC00FE00F406E
:00000001FF
;PIC18F4550
;CRC=CE45  CREATED="15-Jun-20 15:16"
