:10000000F4EF02F0636C6F636B3A0000000E956EC4
:10001000966E956A8C680468056895928C929590A6
:100020008C90086A076A0BEF03F02EC030F02F6A3D
:100030002F5007080EE330BE02D08D9401D08D847E
:10004000969496908D9096908D80D89030362F2AE9
:10005000EFD71200956A8C6A04B802D08C9801D050
:100060008C88959804BC02D08C9C01D08C8C959C7B
:1000700004B402D08C9401D08C84959495928C8297
:1000800050EF00F010C02EF0D0DF0FC02EF0CDDF0B
:100090000EC02EF0CADF0DC02EF0C7DF0494DAD7F1
:1000A00095968C8695968C9695928C925FEF00F043
:1000B0002C500E6E0E1E2DC00DF00D1EE3D712003B
:1000C0001A801AC02CF02BC02DF0F2DF1A901AC043
:1000D0002CF02BC02DF0ECDF12001A9428C02BF06E
:1000E000EFDF200E006E002EFED700D000001200C1
:1000F000EA6A280EE96EEF500DE0060E016E006A06
:10010000002EFED7012EFBD77B0E006E002EFED7F1
:10011000EF2EF3D712001A901A921A841A96380EFC
:10012000286EDBDF420E006E002EFED700000C0EA4
:10013000286ED3DF420E006E002EFED70000010EA7
:10014000286ECBDF020E286ED3DF060E286EC5DFC9
:10015000420E006E002EFED700000CEF03F01A8452
:100160002AC02BF0ADDF200E006E002EFED700D08F
:10017000000012000900F5520CE0F6CF28F0F7CF8E
:1001800029F0F5CF2AF0EBDF28C0F6FF29C0F7FFF2
:10019000F1D717EF03F0080E016E00008A929392D8
:1001A000000028368A90D8B09380D8A0939093828C
:1001B00081A2FED7012EF1D700008A92939200000F
:1001C000938000000000938281A2FED7016A0000A4
:1001D00081B001808A9293928A9093901200080EC7
:1001E000296E00C02AF093800000938281A2FED77E
:1001F00081B0D88081A0D8900136000093928A9275
:10020000292EF1D7938000008A902A50D8A4939089
:100210000000938281A2FED700008A929392000090
:100220008A90939012009380050E006E002EFED7E8
:100230009382060E006E002EFED78A909390050ED4
:10024000006E002EFED78A929392D00E286EA3DF06
:10025000286AA1DF9380050E006E002EFED79382E0
:10026000060E006E002EFED781A2FED78A909390D4
:10027000050E006E002EFED78A929392D10E286E44
:100280008ADF010E006EABDF01C021F0010E006EAF
:10029000A6DF01C020F0010E006EA1DF01C01FF03B
:1002A000010E006E9CDF01C01EF0010E006E97DF94
:1002B00001C01DF0010E006E92DF01C01CF0010EA6
:1002C000006E8DDF01C01BF0010E006E88DF01C0E3
:1002D00023F0006A84DF01C022F093900000938233
:1002E00081A2FED7050E006E002EFED700D00000C2
:1002F0009380050E006E002EFED71200550E216E63
:10030000320E206E160E1F6E020E1E6E100E1D6E29
:10031000080E1C6E200E1B6E900E236E226E1CEFBC
:1003200003F09380050E006E002EFED79382060E1A
:10033000006E002EFED78A909390050E006E002E60
:10034000FED78A929392D00E286E25DF286A23DF8B
:1003500021C028F020DF20C028F01DDF1FC028F0BA
:100360001ADF1EC028F017DF1DC028F014DF1CC0E4
:1003700028F011DF1BC028F00EDF23C028F00BDFB0
:1003800022C028F008DF93900000938281A2FED75C
:10039000050E006E002EFED700D000009380050EE3
:1003A000006E002EFED712008A0E286E96DE300EEA
:1003B0002724286E2A6ED3DE12008C0E286E8DDE66
:1003C0001F38006E0F0E00160050300F286E2A6E78
:1003D000C6DE1F500F0B300F286E2A6EC0DE200EB7
:1003E0002A6EBDDE2038006E0F0E00160050300F52
:1003F000286E2A6EB4DE20500F0B300F286E2A6E46
:10040000AEDE200E2A6EABDE2138006E0F0E001617
:100410000050300F286E2A6EA2DE21500F0B300FD5
:10042000286E2A6E9CDECC0E286E57DE1D38006EBC
:100430000F0E00160050300F286E2A6E90DE1D50F1
:100440000F0B300F286E2A6E8ADE200E2A6E87DE92
:100450001C38006E0F0E00160050300F286E2A6EEA
:100460007EDE1C500F0B300F286E2A6E78DE200EB9
:100470002A6E75DE1B38006E0F0E00160050300F0E
:10048000286E2A6E6CDE1B500F0B300F286E2A6E02
:1004900066DE1200938481B410D0140E286E28DE1C
:1004A000938481B40AD02750020802E3272A01D09E
:1004B000276A7ADF938481A4FDD734EF03F028C044
:1004C00029F00F0E281628500A0802E1060E2926E8
:1004D00029C001F0120025DF70DF1200938A81BA73
:1004E00038D0140E286E04DE938A81BA32D0275099
:1004F000030A05E0010A10E0030A1BE027D021509F
:10050000590802E1216A06D0212A21C028F0D7DF4C
:1005100001C021F0E0DF1AD02050590802E1206A22
:1005200006D0202A20C028F0CADF01C020F0D3DF87
:100530000DD01F50230802E11F6A06D01F2A1FC0DA
:1005400028F0BDDF01C01FF0C6DF00D0938A81AA6A
:10055000FDD735EF03F028C029F00F0E28162850DC
:100560000F0802E1060E295E29C001F012009388EF
:1005700081B838D0140E286EBBDD938881B832D094
:100580002750030A05E0010A10E0030A1BE027D008
:10059000215203E1590E216E06D0210621C028F018
:1005A000DADF01C021F097DF1AD0205203E1590EA3
:1005B000206E06D0200620C028F0CDDF01C020F03C
:1005C0008ADF0DD01F5203E1230E1F6E06D01F06D7
:1005D0001FC028F0C0DF01C01FF07DDF00D093886E
:1005E00081A8FDD736EF03F0F86AD09E066A0D6A3F
:1005F0000E6A0F6A106A196AC150C00B0F09C16EEA
:10060000070EB46E116812681368146815681668CE
:1006100017681868FBD47FD50F0E286E5EDD800E3C
:10062000286E5BDD040EF66E000EF76EA3D5FBDDC3
:100630002250900802E062D674DE276AB5DEF3DD50
:1006400021C024F0F0DD2150245C04E021C024F01E
:10065000ABDEB3DE266A256A265027080BE303E1EA
:1006600025500F0807E316D739D781D7252AD8B4E4
:08067000262AF2D7E7D70300A8
:020000040030CA
:0E00000027CC3E1E0087A1000FC00FE00F406E
:00000001FF
;PIC18F4550
;CRC=F80F  CREATED="10-Aug-20 16:40"
