:10000000C3EF06F0F76A140FF66E000EF722090030
:10001000F5501200C0F9A4B0999282F880908883BC
:10002000C6A1868EF76A340FF66E000EF72209001D
:10003000F55012007FBFDFEFF7FBFDFEF76A4C0FB4
:10004000F66E000EF7220900F550120000010205BD
:100050000304010220030703060602050303060644
:10006000020303040703072020070706060303040F
:10007000000606050304010107202007000602050B
:100080000304000602030304202020202020000691
:100090000205202020202020072007202007060717
:1000A0000703070720070303070703072020200390
:1000B0000303200120202020070101070303200162
:1000C00020200120F76AD40FF66E000EF7220900F7
:1000D000F5501200070F1F1F1F1F1F1F1F1F1F009C
:1000E000000000001C1E1F1F1F1F1F1F000000001C
:1000F000001F1F1F1F1F1F1F1F1F1E1C1F1F1F1F33
:100100001F1F0F071F1F1F0000001F1F1F1F1F1F84
:100110001F1F1F1FF76A240FF66E010EF72209003A
:10012000F550120080C094D4544855200000544823
:1001300055200000000E956E966E956A8C680468D6
:10014000056895928C9295908C90086A076ADBEF0F
:1001500006F045C047F0466A465007080EE347BE22
:1001600002D08D9401D08D84969496908D90969027
:100170008D80D8904736462AEFD71200956A8C6A50
:1001800004B802D08C9801D08C88959804BC02D019
:100190008C9C01D08C8C959C04B402D08C9401D0A2
:1001A0008C84959495928C82E4EF00F010C045F019
:1001B000D0DF0FC045F0CDDF0EC045F0CADF0DC067
:1001C00045F0C7DF0494DAD795968C8695968C9681
:1001D00095928C92F3EF00F043500E6E0E1E44C0C9
:1001E0000DF00D1EE3D712001A801AC043F042C072
:1001F00044F0F2DF1A901AC043F042C044F0ECDF42
:1002000012001A9441C042F0EFDF200E006E002E63
:10021000FED700D000001200EA6A3C0EE96EEF50F3
:100220000DE0060E016E006A002EFED7012EFBD7F0
:100230007B0E006E002EFED7EF2EF3D712001A9021
:100240001A921A841A96380E416EDBDF420E006E47
:10025000002EFED700000C0E416ED3DF420E006E62
:10026000002EFED70000010E416ECBDF020E3C6E69
:10027000D3DF060E416EC5DF420E006E002EFED7A4
:100280000000DDEF06F0080E016E00008A929392E6
:1002900000003A368A90D8B09380D8A09390938289
:1002A00081A2FED7012EF1D700008A92939200001E
:1002B000938000000000938281A2FED7016A0000B3
:1002C00081B001808A9293928A9093901200080ED6
:1002D0003B6E00C03CF093800000938281A2FED769
:1002E00081B0D88081A0D8900136000093928A9284
:1002F0003B2EF1D7938000008A903C50D8A4939075
:100300000000938281A2FED700008A92939200009F
:100310008A90939012009380050E006E002EFED7F7
:100320009382060E006E002EFED78A909390050EE3
:10033000006E002EFED78A929392D00E3A6EA3DF03
:100340003A6AA1DF9380050E006E002EFED79382DD
:10035000060E006E002EFED781A2FED78A909390E3
:10036000050E006E002EFED78A929392D10E3A6E41
:100370008ADF010E006EABDF01C021F0010E006EBE
:10038000A6DF01C020F0010E006EA1DF01C01FF04A
:10039000010E006E9CDF01C01EF0010E006E97DFA3
:1003A00001C01DF0010E006E92DF01C01CF0010EB5
:1003B000006E8DDF01C01BF0010E006E88DF01C0F2
:1003C00023F0006A84DF01C022F093900000938242
:1003D00081A2FED7050E006E002EFED700D00000D1
:1003E0009380050E006E002EFED71200550E216E72
:1003F000320E206E160E1F6E020E1E6E100E1D6E39
:10040000080E1C6E200E1B6E900E236E910E226E37
:10041000E4EF06F09380050E006E002EFED7938267
:10042000060E006E002EFED78A909390050E006E89
:10043000002EFED78A929392D00E3A6E24DF3A6A4B
:1004400022DF21C03AF01FDF20C03AF01CDF1FC0BE
:100450003AF019DF1EC03AF016DF1DC03AF013DF84
:100460001CC03AF010DF1BC03AF00DDF23C03AF099
:100470000ADF22C03AF007DF93900000938281A246
:10048000FED7050E006E002EFED700D00000938030
:10049000050E006E002EFED712001A843EC042F0F8
:1004A000A3DE200E006E002EFED700D0000012004A
:1004B000D40E416EA6DE300E27243A6E3E6EEDDF7E
:1004C00012002138296E0F0E291621500F0B286EAD
:1004D00020382A6E0F0E2A1620500F0B2B6E1F3855
:1004E0002D6E0F0E2D161F500F0B2C6E1D38006E2B
:1004F0000F0E00160050300F2F6E1D500F0B300FD7
:100500002E6E1C38006E0F0E00160050300F306E2D
:100510001C500F0B300F316E1B38006E0F0E001683
:100520000050300F336E1B500F0B300F326E1E2CED
:1005300001D007D0300E1E24346E200E3E6EADDF8B
:1005400002D0430E346E1200036A3E50F2CF40F0E8
:10055000F29EE0DD40BEF28E3F24406E416E51DEE1
:100560001200006A016A3D50D8903EB00026003269
:1005700001323EB20026003201323EB40026003283
:1005800001323EB60026003201323EB8002600326B
:1005900001323EBA0026003201323EBC0026003253
:1005A00001323EBE002600320132F1EF02F03BC0C4
:1005B0003EF03CC03FF0C8DF356A35BE03D0355051
:1005C000050824E33550030807E1010E3B243D6E86
:1005D0003E6E3CC03FF0B8DF3AC03DF0060E3E6EC6
:1005E000C0D701503E6A3D6E036A35503D24016E0E
:1005F0003E5003220150F2CF3DF0F29E1FDD3DBE82
:10060000F28E3D6E3E6E49DF352AD7D712000900C3
:10061000F5520CE0F6CF3AF0F7CF3BF0F5CF3EF0D5
:100620003CDF3AC0F6FF3BC0F7FFF1D712008C0E5B
:10063000416EE7DD2DC03AF03B6A3C6AB8DF2CC062
:100640003AF03B6A030E3C6EB2DF2AC03AF03B6AD6
:10065000070E3C6EACDF2BC03AF03B6A0A0E3C6ED4
:10066000A6DF29C03AF03B6A0E0E3C6EA0DF28C020
:100670003AF03B6A110E3C6E9ADFD70E416EC1DD37
:100680002E0EF66E010EF76EC2DF34C03EF005DFAF
:10069000E00E416EB6DD2FC03EF0FFDE2EC03EF014
:1006A000FCDE2F0E3E6EF9DE30C03EF0F6DE31C0CD
:1006B0003EF0F3DE2F0E3E6EF0DE33C03EF0EDDE98
:1006C00032C03EF0EADE1200938681B60DD0140EE1
:1006D0003C6EA2DD938681B607D03870010E416E64
:1006E00090DD938681A6FDD70DEF07F01E2C01D07B
:1006F0000CD011681E500F0B036AF2CF3AF0F29E35
:1007000081DC3ABEF28E126E04D0C60E116EAB0EB4
:10071000126EBF0E136E20500F0B036AF2CF3AF029
:10072000F29E70DC3ABEF28E146E2038006E0F0E10
:1007300000160050036AF2CF3AF0F29E63DC3ABE34
:10074000F28E156EBF0E166E21500F0B036AF2CF9C
:100750003AF0F29E57DC3ABEF28E176E2138006EE8
:100760000F0E00160050036AF2CF3AF0F29E4ADCF8
:100770003ABEF28E186E15EF07F0956A8C6A05BCCA
:1007800002D08C9C01D08C8C959C05B802D08C98A2
:1007900001D08C88959805B402D08C9401D08C84BB
:1007A000959495908C801200036A3B50F2CF3DF0F7
:1007B000F29E38DC3DBEF28E016E3D6E3D1E3DC0A8
:1007C00045F0C7DC3CC03DF03D1E3DC045F0C1DCFE
:1007D0000598D3DF959A8C8A959A8C9A95908C90EF
:1007E00029EF04F03A503C6E3C1E3CC045F0B1DCB1
:1007F0003BC03CF03C1E3CC045F0ABDC0598BDDF87
:10080000959A8C8A959A8C9A95908C900BEF04F01F
:100810003A683B68E7D72FEF04F0196A19500708C8
:1008200020E3036A1950110FE96E000E0320EA6EEF
:10083000EF3C01D014D0036A1950110FE96E000E7D
:100840000320EA6EEFCF3AF019C03BF03AC03CF01B
:10085000ABD7A60E006E002EFED70000D9D7192AFE
:10086000DDD71AEF07F02138006E0F0E001600508A
:10087000300F296E21500F0B300F286E2038006E7C
:100880000F0E00160050300F2A6E20500F0B300F45
:100890002B6E1F38006E0F0E00160050300F2D6E9D
:1008A0001F500F0B300F2C6E1D38006E0F0E0016F0
:1008B0000050300F2F6E1D500F0B300F2E6E1C3856
:1008C000006E0F0E00160050300F306E1C500F0BD4
:1008D000300F316E1B38006E0F0E00160050300FB7
:1008E000336E1B500F0B300F326E1E2C01D006D012
:1008F000300E1E24366E200E376E04D0430E366E38
:100900004E0E376E1FEF07F08C0E416E7ADC2DC055
:100910003EF0C3DD2CC03EF0C0DD3A0E3E6EBDDDC4
:100920002AC03EF0BADD2BC03EF0B7DD3A0E3E6E77
:10093000B4DD29C03EF0B1DD28C03EF0AEDDC50E0D
:10094000416E5FDC280EF66E010EF76E60DE36C07B
:100950003EF0A3DD37C03EF0A0DDCC0E416E51DC91
:100960002FC03EF09ADD2EC03EF097DD2F0E3E6E7A
:1009700094DD30C03EF091DD31C03EF08EDD2F0EB3
:100980003E6E8BDD33C03EF088DD32C03EF085DD4B
:100990001200938481B410D0140E3C6E3DDC93841D
:1009A00081B40AD02750060802E3272A01D0276A1B
:1009B0007FDD938481A4FDD72FEF07F03AC03BF091
:1009C0000F0E3A163A500A0802E1060E3B263BC0CB
:1009D00001F012008C0E416E14DC1F38006E0F0EF9
:1009E00000160050300F3A6E3E6E57DD1F500F0B51
:1009F000300F3A6E3E6E51DD200E3E6E4EDD2038D9
:100A0000006E0F0E00160050300F3A6E3E6E45DD40
:100A100020500F0B300F3A6E3E6E3FDD200E3E6EC3
:100A20003CDD2138006E0F0E00160050300F3A6E7C
:100A30003E6E33DD21500F0B300F3A6E3E6E2DDDD2
:100A4000CC0E416E01EC01F01D38006E0F0E001649
:100A50000050300F3A6E3E6E20DD1D500F0B300FF0
:100A60003A6E3E6E1ADD200E3E6E17DD1C38006EAB
:100A70000F0E00160050300F3A6E3E6E0EDD1C5009
:100A80000F0B300F3A6E3E6E08DD200E3E6E05DD18
:100A90001B38006E0F0E00160050300F3A6E3E6E7F
:100AA000FCDC1B500F0B300F3A6E3E6EF6DC5BEF3A
:100AB00005F0B0DC8FD71200938A81BA72D0140E81
:100AC0003C6E0CEC01F0938A81BA6BD02750030A7C
:100AD0000DE0010A18E0030A23E0050A2EE0010AEE
:100AE0003AE0030A46E0010A51E058D02150590883
:100AF00002E1216A06D0212A21C03AF05FDF01C05D
:100B000021F0D7DF4BD02050590802E1206A06D0EF
:100B1000202A20C03AF052DF01C020F0CADF3ED0C8
:100B20001F50230802E11F6A06D01F2A1FC03AF097
:100B300045DF01C01FF0BDDF31D01D50310803E19A
:100B4000010E1D6E06D01D2A1DC03AF037DF01C010
:100B50001DF0AFDF23D01C50120803E1010E1C6E04
:100B600006D01C2A1CC03AF029DF01C01CF0A1DF0E
:100B700015D01B50990802E11B6A06D01B2A1BC026
:100B80003AF01CDF01C01BF094DF08D01E2A1E5073
:100B9000080802E1010E1E6E8CDF00D0938A81AA44
:100BA000FDD730EF07F03AC03BF00F0E3A163A503F
:100BB0000F0802E1060E3B5E3BC001F01200938875
:100BC00081B86FD0320E3C6E0CEC01F0938881B886
:100BD00068D02750030A0DE0010A18E0030A23E059
:100BE000050A2EE0010A39E0030A44E0010A4FE059
:100BF00055D0215203E1590E216E06D0210621C0A5
:100C00003AF0D1DF01C021F054DF48D0205203E197
:100C1000590E206E06D0200620C03AF0C4DF01C075
:100C200020F047DF3BD01F5203E1230E1F6E06D09A
:100C30001F061FC03AF0B7DF01C01FF03ADF2ED009
:100C40001D5203E1310E1D6E06D01D061DC03AF087
:100C5000AADF01C01DF02DDF21D01C2C03D0120E05
:100C60001C6E06D01C061CC03AF09DDF01C01CF0B3
:100C700020DF14D01B5203E1990E1B6E06D01B0619
:100C80001BC03AF090DF01C01BF013DF07D01E0637
:100C90001E5202E1070E1E6E0CDF00D0938881A861
:100CA000FDD731EF07F02750010A0DE0030A0FE0EE
:100CB000010A11E0070A13E0010A15E0030A17E030
:100CC000010A19E01CD05F0E2D6E2C6E18D05F0E3D
:100CD0002A6E2B6E14D05F0E296E286E10D05F0E18
:100CE0002F6E2E6E0CD05F0E306E316E08D05F0E00
:100CF000336E326E04D05F0E366E376E00D03AEF30
:100D000007F03B6A3A503B5C10E2010E3C6E0CEC83
:100D100001F0938A81AA06D0938881A803D0938496
:100D200081B401D002D03B2AEDD712002750010A2E
:100D30000DE0030A0FE0010A11E0070A13E0010ABF
:100D400015E0030A17E0010A19E01BD0100E2D6E02
:100D50002C6E17D0100E2A6E2B6E13D0100E296E2B
:100D6000286E0FD05F0E2F6E2E6E0BD05F0E306E82
:100D7000316E07D05F0E336E326E03D05F0E346E6D
:100D800000D040EF07F0F86AD09E066A0D6A0E6A3E
:100D90000F6A106A196AC150C00B0F09C16E070EA5
:100DA000B46E1168126813681468156816681768BD
:100DB00018689AEF00F01FEF01F08BEC01F0225061
:100DC000910804E0F6EF01F00AEC02F0276A58EC13
:100DD00002F08BEC01F021C024F0400E416E01ECDA
:100DE00001F0356A35BE03D035503F080FE3036A82
:100DF0003550F2CF3AF0F29E62EC00F03ABEF28E3D
:100E00003A6E3E6E4DEC02F0352AECD7388061EC3C
:100E100002F00DDC8BEC01F057D42150245C15E07E
:100E200021C024F058EC02F061D4396A3950C70867
:100E300003E3F3D4392AFAD738B003D014D564DDEC
:100E400004D061EC02F017EC03F0266A256A265004
:100E500027080BE303E125500F0807E39AD52CD6AA
:100E6000AED6252AD8B4262AF2D727520EE038B0BB
:100E700006D019D7F40E3A6E44DF46DD06D056D7B9
:0E0E8000F40E3A6E3EDF17EC03F0C4D7030009
:020000040030CA
:0E00000027CC3E1E0087A1000FC00FE00F406E
:00000001FF
;PIC18F4550
;CRC=5655  CREATED="17-Aug-20 14:28"
