:10000000EFEF00F0444D205448414E47204C414D05
:1000100020003244414920484F4320535520504846
:10002000414D204B5420200033424F20544849205A
:100030004E474849454D2056444B20200000313260
:1000400033343536373839616263646566676869A9
:100050006A00000E956E966E956A8C680468056855
:1000600095928C9295908C90086A076A06EF01F041
:1000700021C023F0226A225007080EE323BE02D0DB
:100080008D9401D08D84969496908D9096908D80CD
:10009000D8902336222AEFD71200956A8C6A04B8CA
:1000A00002D08C9801D08C88959804BC02D08C9C8E
:1000B00001D08C8C959C04B402D08C9401D08C849B
:1000C000959495928C8273EF00F010C021F0D0DFF0
:1000D0000FC021F0CDDF0EC021F0CADF0DC021F02E
:1000E000C7DF0494DAD795968C8695968C96959270
:1000F0008C9282EF00F01F500E6E0E1E20C00DF08D
:100100000D1EE3D712001A801AC01FF01EC020F087
:10011000F2DF1A901AC01FF01EC020F0ECDF1200B0
:100120001A941BC01EF0EFDF200E006E002EFED7CB
:1001300000D000001200EA6A1B0EE96EEF500DE0DD
:10014000060E016E006A002EFED7012EFBD77B0E35
:10015000006E002EFED7EF2EF3D7C9EF00F01A90F5
:100160001A921A841A96380E1B6EDADF420E006E4F
:10017000002EFED700000C0E1B6ED2DF420E006E6A
:10018000002EFED70000010E1B6ECADF020E1B6E92
:10019000D2D7060E1B6EC4DF420E006E002EFED7B5
:1001A000000007EF01F01A841DC01EF0ACDF200E26
:1001B000006E002EFED700D00000E9EF00F009002D
:1001C000F5520CE0F6CF1BF0F7CF1CF0F5CF1DF089
:1001D000EAD71BC0F6FF1CC0F7FFF1D71200F86A80
:1001E000D09E066A0D6A0E6A0F6A106A196AC150BB
:1001F000C00B0F09C16E070EB46E11681268136848
:100200001468156816681768186823D7A8D7800E71
:100210001B6E86DF040EF66E000EF76ED0DFC00E8A
:100220001B6E7EDF120EF66E000EF76EC8DF940EA8
:100230001B6E76DF280EF66E000EF76EC0DFD40E52
:100240001B6E6EDF3E0EF66E000EF76EB8DFFFD748
:020250000300A9
:020000040030CA
:0E00000027CC3E1E0087A1000FC00FE00F406E
:00000001FF
;PIC18F4550
;CRC=AF10  CREATED="08-Jun-20 15:12"
