:1000000082EF00F0F76A140FF66E000EF722090077
:10001000F5501200C0F9A4B0999282F880908883BC
:10002000C6A1868E000E956E966E956A8C680468E1
:10003000056895928C9295908C90086A076A99EF62
:1000400000F01E50016A1D5C03E21DC000F00CD0E0
:10005000006A080E1F6E1D3600361E50005CD8B0B8
:10006000006E01361F2EF7D7120025C027F0266A32
:10007000265007080EE327BE02D08D9401D08D8450
:10008000969496908D9096908D80D8902736262ABB
:10009000EFD71200956A8C6A04B802D08C9801D010
:1000A0008C88959804BC02D08C9C01D08C8C959C3B
:1000B00004B402D08C9401D08C84959495928C8257
:1000C00070EF00F024C025F0D0DF23C025F0CDDF95
:1000D00022C025F0CADF21C025F0C7DF049CDAD793
:1000E000959E8C9E959E8C8E95928C9280EF00F0C2
:1000F00021681EC022F01FC023F020C024F0E2D7E8
:10010000D4EF00F0F86AD09E066A0D6A0E6A0F6A94
:10011000106A196AC150C00B0F09C16E070EB46E88
:1001200011681268136814681568166817681868EB
:1001300079D7E80ED56ED76AD66AD6501A6E1AC02D
:100140001DF0640E1E6E7DDF036A0150F2CF1BF0BE
:10015000F29E58DF1BBEF28E1B6E1AC01DF00A0EF7
:100160001E6E6FDF01C01DF00A0E1E6E6ADF036A8D
:100170000050F2CF1CF0F29E45DF1CBEF28E1C6ECA
:100180001AC01DF00A0E1E6E5CDF036A0050F2CF2B
:100190001DF0F29E37DF1DBEF28E1D6E1BC01EF0DD
:1001A0001CC01FF0206EA4D71A50640803E2D76A5F
:0801B000010ED66EC2D7030058
:020000040030CA
:0E00000027CC3E1E0087A1000FC00FE00F406E
:00000001FF
;PIC18F4550
;CRC=C0FC  CREATED="25-May-20 16:17"
