:100000009BEF00F0F76A140FF66E000EF72209005E
:10001000F5501200C0F9A4B0999282F880908883BC
:10002000C6A1868E000E956E966E956A8C680468E1
:10003000056895928C9295908C90086A076AB2EF49
:1000400000F021C023F0226A225007080EE323BEED
:1000500002D08D9401D08D84969496908D90969038
:100060008D80D8902336222AEFD71200956A8C6AA9
:1000700004B802D08C9801D08C88959804BC02D02A
:100080008C9C01D08C8C959C04B402D08C9401D0B3
:100090008C84959495928C825CEF00F020C021F0C6
:1000A000D0DF1FC021F0CDDF1EC021F0CADF1DC090
:1000B00021F0C7DF049CDAD7959E8C9E959E8C8E8E
:1000C00095928C9212001C501D18800B1F6E1CAE56
:1000D00002D01C1E1C2A1DAE02D01D1E1D2A1D5042
:1000E000016A1C5C03E21CC000F00CD0006A080E20
:1000F0001E6E1C3600361D50005CD8B0006E0136F6
:100100001E2EF7D71FAE02D0011E012A1200EA6A86
:100110001B0EE96EEF500DE0060E016E006A002E18
:10012000FED7012EFBD77B0E006E002EFED7EF2EE2
:10013000F3D7E9EF00F0F86AD09E066A0D6A0E6AFE
:100140000F6A106A196AC150C00B0F09C16E070E01
:10015000B46E116812681368146815681668176819
:10016000186860D7B00E1D6EA40E1E6EF90E1F6EBD
:10017000C00E206E93DF1A6A1ABE03D01A506208AE
:100180002AE31AC01CF00A0E1D6E9DDF036A01509F
:10019000F2CF1BF0F29E36DF1BBEF28E1B6E1AC032
:1001A0001CF00A0E1D6E8FDF036A0050F2CF1CF0A8
:1001B000F29E28DF1CBEF28E1C6EB00E1D6EA40EC9
:1001C0001E6E1BC01FF01CC020F068DF640E1B6E8B
:0A01D0009ED71A2AD1D7CFD703001B
:020000040030CA
:0E00000027CC3E1E0087A1000FC00FE00F406E
:00000001FF
;PIC18F4550
;CRC=A191  CREATED="01-Jun-20 13:45"
