:100000008AEF00F0F76A140FF66E000EF72209006F
:10001000F5501200C0F9A4B0999282F880908883BC
:10002000C6A1868E000E956E966E956A8C680468E1
:10003000056895928C9295908C90086A076AA3EF58
:1000400000F022C024F0236A235007080EE324BEE8
:1000500002D08D9401D08D84969496908D90969038
:100060008D80D8902436232AEFD71200956A8C6AA7
:1000700004B802D08C9801D08C88959804BC02D02A
:100080008C9C01D08C8C959C04B402D08C9401D0B3
:100090008C84959495928C825CEF00F021C022F0C4
:1000A000D0DF20C022F0CDDF1FC022F0CADF1EC08B
:1000B00022F0C7DF049CDAD7959E8C9E959E8C8E8D
:1000C00095928C9212001E50016A1D5C03E21DC0C5
:1000D00000F00CD0006A080E1F6E1D3600361E5050
:1000E000005CD8B0006E01361F2EF7D71200EA6A06
:1000F0001D0EE96EEF500DE0060E016E006A002E37
:10010000FED7012EFBD77B0E006E002EFED7EF2E02
:10011000F3D71200F86AD09E066A0D6A0E6A0F6A5B
:10012000106A196A1A6A1B6AC150C00B0F09C16EA6
:10013000070EB46E116812681368146815681668A3
:10014000176818686FD7B00E1E6EA40E1F6EF90EDA
:10015000206EC00E216EA2DF1B503B082CE31AC09C
:100160001DF00A0E1E6EAFDF036A0150F2CF1CF0C5
:10017000F29E48DF1CBEF28E1C6E1AC01DF00A0EE5
:100180001E6EA1DF036A0050F2CF1DF0F29E3ADF2F
:100190001DBEF28E1D6E1CC01EF01F6E20682168F1
:1001A0007DDF020E1C6EFA0E1D6EA1DF1C2EFBD72A
:1001B0001B2A1A2A34D01B5077082FE31B503B0808
:1001C0002CE21AC01DF00A0E1E6E7DDF036A01507C
:1001D000F2CF1CF0F29E16DF1CBEF28E1C6E1AC00F
:1001E0001DF00A0E1E6E6FDF036A0050F2CF1DF085
:1001F000F29E08DF1DBEF28E1D6E1CC01EF01F6E2B
:10020000206821684BDF020E1C6EFA0E1D6E6FDF38
:100210001C2EFBD71B2A1A0602D01A6A1B6A9CD70F
:020220000300D9
:020000040030CA
:0E00000027CC3E1E0087A1000FC00FE00F406E
:00000001FF
;PIC18F4550
;CRC=CD2B  CREATED="01-Jun-20 14:39"
