:1000000033EF01F0F76A140FF66E000EF7220900C5
:10001000F550120080C094D4444F4E4720484F3AC8
:100020000000000E956E966E956A8C6804680568EF
:1000300095928C9295908C90086A076A4AEF01F02D
:1000400026C028F0276A275007080EE328BE02D0F2
:100050008D9401D08D84969496908D9096908D80FD
:10006000D8902836272AEFD71200956A8C6A04B8F0
:1000700002D08C9801D08C88959804BC02D08C9CBE
:1000800001D08C8C959C04B402D08C9401D08C84CB
:10009000959495928C825BEF00F010C026F0D0DF33
:1000A0000FC026F0CDDF0EC026F0CADF0DC026F04F
:1000B000C7DF0494DAD795968C8695968C969592A0
:1000C0008C926AEF00F024500E6E0E1E25C00DF0CB
:1000D0000D1EE3D712001A801AC024F023C025F0A9
:1000E000F2DF1A901AC024F023C025F0ECDF1200D2
:1000F0001A9422C023F0EFDF200E006E002EFED7F0
:1001000000D000001200EA6A200EE96EEF500DE008
:10011000060E016E006A002EFED7012EFBD77B0E65
:10012000006E002EFED7EF2EF3D712001A901A920F
:100130001A841A96380E226EDBDF420E006E002EF5
:10014000FED700000C0E226ED3DF420E006E002E92
:10015000FED70000010E226ECBDF020E206ED3DF31
:10016000060E226EC5DF420E006E002EFED7000086
:100170004BEF01F0036A1F50F2CF21F0F29E42DFF5
:1001800021BEF28E2024216E226EB2DF12001A846C
:1001900021C023F0A0DF200E006E002EFED700D07D
:1001A000000012000900F5520CE0F6CF1FF0F7CF67
:1001B00020F0F5CF21F0EBDF1FC0F6FF20C0F7FFE6
:1001C000F1D753EF01F02150016A205C03E220C017
:1001D00000F00CD0006A080E226E20360036215046
:1001E000005CD8B0006E0136222EF7D712001F6ACD
:1001F0000F0E206EBFDF200E006E002EFED700D047
:1002000000001BC020F0640E216EDDDF300E0124E3
:100210001E6E1BC020F00A0E216ED5DF01C020F03B
:100220000A0E216ED0DF300E00241D6E1BC020F0A0
:100230000A0E216EC8DF300E00241C6E1E503008DE
:1002400007E1200E1E6E1D50300802E1200E1D6ECB
:100250001EC021F09CDF1DC021F099DF1CC021F0E1
:1002600096DF56EF01F0F86AD09E066A0D6A0E6AB4
:100270000F6A106A196AC150C00B0F09C16E070ED0
:10028000B46E1168126813681468156816681768E8
:100290001868C7D64BD71F6A206A6CDF180EF66E37
:1002A000000EF76E7FD7640E1B6EA1D7020E1F6E75
:1002B000960E206E28DF1F2EFBD71B2A1B50960898
:0802C00001E11B6AF2D7030003
:020000040030CA
:0E00000027CC3E1E0087A1000FC00FE00F406E
:00000001FF
;PIC18F4550
;CRC=8C91  CREATED="08-Jun-20 22:13"
