:1000000001EF04F0F76A140FF66E000EF7220900F4
:10001000F5501200C0F9A4B0999282F880908883BC
:10002000C6A1868EF76A340FF66E000EF72209001D
:10003000F55012000001020503040102200307032A
:10004000060602050303060602030304070307204E
:100050002007070606030304000606050304010142
:10006000072020070006020503040006020303041C
:1000700020202020202000060205202020202020F3
:100080000720F76A920FF66E000EF7220900F5506E
:100090001200070F1F1F1F1F1F1F1F1F1F00000021
:1000A00000001C1E1F1F1F1F1F1F00000000001F3D
:1000B0001F1F1F1F1F1F1F1F1E1C1F1F1F1F1F1F54
:1000C0000F071F1F1F0000001F1F1F1F1F1F1F1FC5
:1000D0001F1FF76AE20FF66E000EF7220900F550B7
:1000E000120080C094D4000E956E966E956A8C684E
:1000F0000468056895928C9295908C90086A076ABE
:100100001BEF04F030C032F0316A315007080EE3C3
:1001100032BE02D08D9401D08D84969496908D90AD
:1001200096908D80D8903236312AEFD71200956A9A
:100130008C6A04B802D08C9801D08C88959804BC45
:1001400002D08C9C01D08C8C959C04B402D08C94F1
:1001500001D08C84959495928C82120010C030F05E
:10016000D1DF0FC030F0CEDF0EC030F0CBDF0DC0DE
:1001700030F0C8DF0494DBDF95968C8695968C96DC
:1001800095928C92CBEF00F02E500E6E0E1E2FC06B
:100190000DF00D1EE3D712001A801AC02EF02DC0EC
:1001A0002FF0F2DF1A901AC02EF02DC02FF0ECDFE6
:1001B00012001A942CC02DF0EFDF200E006E002EDE
:1001C000FED700D000001200EA6A250EE96EEF505B
:1001D0000DE0060E016E006A002EFED7012EFBD741
:1001E0007B0E006E002EFED7EF2EF3D712001A9072
:1001F0001A921A841A96380E2C6EDBDF420E006EAD
:10020000002EFED700000C0E2C6ED3DF420E006EC7
:10021000002EFED70000010E2C6ECBDF020E256EE5
:10022000D3DF060E2C6EC5DF420E006E002EFED709
:1002300000002CEF04F08E0E006E26C001F025C0E9
:1002400002F0036A015209E102C001F0026A080EDD
:10025000005E015202E1006A08D0D89001BE04D0CD
:10026000023601360006F9D7019E44EF04F025500E
:10027000D8B4A5D0316E2950D8B4A1D0315E05E3F1
:100280007F0E3126D8B09BD006D0810E315ED8A02B
:1002900096D0D8B494D031C000F0016A026A036AE3
:1002A000306A26C02FF02F8E27C02EF028C02DF0E8
:1002B000190E316E2C502D5E0DE2010E2E5E0AE2FB
:1002C0002F5E08E2305E06E2302A2F2A2E2A2C50BA
:1002D0002D2628D02B502E5E12E2010E2F5E0FE24B
:1002E000305E0DE2302A2F2A2B502E262C502D2640
:1002F00019E32E2A17E12F2A15E1302A13D02A50AC
:1003000080092F5E0EE2010E305E0BE2302A2A5089
:1003100080092F262B502E26E9E32F2AE7E1302AE9
:10032000E5D70380312E01D00BD0D8902D362E3654
:100330002F363036D8900336023601363236BAD7E9
:1003400032A006D0D890013202320332323202D0CB
:10035000000635E032BE1ED0D8902D362E362F3610
:1003600030362C502D5E07E2010E2E5E04E22F5E29
:1003700002E2305E1AE32B502E5E05E2010E2F5E84
:1003800002E2305E12E32A5080092F5E03E2010E82
:10039000305E0BE3032A09E1022A07E1012A05E1A5
:1003A000002A0DE001320232033226C031F02A5019
:1003B000311A31AE02D0018E06D0019E04D0006AFF
:1003C000016A026A036A55EF04F08E0E006E255032
:1003D000005E26C002F027C001F0028E005209E044
:1003E000D890025202E1015204E002320132002EA2
:1003F000F7D726AE05D0011E021E012AD8B4022A64
:100400005EEF04F0016A026A006A036A2C5002E19E
:100410002B5018E0100E2D6ED89029362A36003653
:1004200003362C50035C02E12B50005C07E32B5099
:10043000005ED8A003062C50035ED8800136023639
:100440002D2EEAD712002AC030F05CDE29C030F031
:1004500059DE28C030F056DE27C030F053DE049C51
:1004600066DE959E8C9E959E8C8E95928C92CBEF9F
:1004700002F026C02AF025C029F02C6A0A0E2B6E45
:10048000C1DF00C027F003C028F003C003F0005014
:10049000F2CF29F0F29EB6DD29BEF28E096E26C09B
:1004A0002AF025C029F02C6A0A0E2B6EABDF02C0A1
:1004B00028F001C027F002C02AF001C029F02C6A00
:1004C0000A0E2B6E9FDF00C027F003C028F003C088
:1004D00003F00050F2CF29F0F29E94DD29BEF28E97
:1004E0000A6E26C02AF025C029F02C6A640E2B6EF5
:1004F00089DF02C028F001C027F002C02AF001C045
:1005000029F02C6A0A0E2B6E7DDF00C027F003C095
:1005100028F003C003F00050F2CF29F0F29E72DD04
:1005200029BEF28E0B6E26C02AF025C029F0030EDC
:100530002C6EE80E2B6E66DF02C028F001C027F09B
:1005400002C02AF001C029F02C6A0A0E2B6E5ADF75
:1005500000C027F003C028F003C003F00050F2CF22
:1005600029F0F29E4FDD29BEF28E0C6E0C50C008B1
:1005700009E10C680B50C00805E10B680A50C0087F
:1005800001E10A680CC027F00BC028F00AC029F06E
:1005900009C02AF058D773EF04F01A8429C02DF04F
:1005A000FBDD200E006E002EFED700D000001200F2
:1005B000036A2950F2CF2BF0F29E8BDD2BBEF28E18
:1005C0002A242B6E2C6EF5DD1200006A016A285079
:1005D000D89029B000260032013229B2002600321C
:1005E000013229B400260032013229B60026003239
:1005F000013229B800260032013229BA0026003221
:10060000013229BC00260032013229BE0026003208
:10061000013225EF03F026C029F027C02AF0C8DFF9
:10062000206A20BE03D02050050824E32050030890
:1006300007E1010E2624286E296E27C02AF0B8DFB4
:1006400025C028F0060E296EC0D70150296A286EF1
:10065000036A20502824016E295003220150F2CF52
:1006600028F0F29EDFDC28BEF28E286E296E95DF20
:10067000202AD7D712001EC02AF01DC029F02C6AEC
:100680000A0E2B6EBFDE02C026F001C025F002C0AC
:100690002AF001C029F02C6A0A0E2B6EB3DE00C0CE
:1006A00021F003C022F01EC02AF01DC029F02C6AE0
:1006B0000A0E2B6EA7DE00C023F003C024F02152E7
:1006C00005E1225203E1226A0A0E216E400E2C6ED1
:1006D00070DD200E006E002EFED700D00000206AD4
:1006E00020BE03D020503F080DE3036A2050F2CF14
:1006F00025F0F29EC6DC25BEF28E256E296E4DDFFA
:10070000202AEED721C025F0020E266E030E276E9A
:1007100082DF23C025F0020E266E060E276E7BDFD9
:1007200074EF04F025C030F0EDDC26C030F0EADCD8
:1007300027C030F0E7DC28C030F0E4DC0498F7DCB8
:10074000959A8C8A959A8C9A95928C921200956AB9
:100750008C6A05BC02D08C9C01D08C8C959C05B811
:1007600002D08C9801D08C88959805B402D08C94D6
:1007700001D08C84959495908C80CBEF03F007C0CA
:1007800025F008C026F026C030F0BCDC25C030F0D3
:10079000B9DC0594DCD795968C8695968C969590C9
:1007A0008C9012000894EBDFE8EF03F00884E7DF99
:1007B000FFEF03F01E5203E11D5020080AE21FB0B4
:1007C00008D01F802568266827682868ABDFEAD72D
:1007D00016D01E520CE11D501F0809E31FA007D0C0
:1007E0001F90256A266A276A286A9CDF08D01E5255
:1007F00006E11D501D0803E31FB001D0D7D775EFE8
:1008000004F0F86AD09E066A0D6A0E6A0F6A106AD2
:10081000196A640E1C6E1F90C150C00B0F09C16E87
:10082000070EB46E116812681368146815681668AC
:100830001768186858D4C050C00B0209C06EC08E2B
:10084000C280C150C00B0E09C16E000E016EC250B5
:10085000C30B0110C26ECBD41F901E6A1D6A1B6AA7
:100860001C501B5C0CE2C282C2B2FED7C3501D26D4
:10087000C4501E22010E256EA7DC1B2AF1D71EC014
:1008800026F01DC025F0D7D403C028F002C027F001
:1008900001C026F000C025F0AA0E2C6EF10E2B6EC2
:1008A000020E2A6E800E296EE2D403C028F002C028
:1008B00027F001C026F000C025F087D502C01EF049
:1008C00001C01DF01EC02AF01DC029F02C6A1CC0FA
:1008D0002BF098DD02C01EF001C01DF01EC026F0F6
:0E08E0001DC025F0C6D5C7D665D7B7D7030013
:020000040030CA
:0E00000027CC3E1E0087A1000FC00FE00F406E
:00000001FF
;PIC18F4550
;CRC=91DE  CREATED="10-Aug-20 15:32"
