:1000000061EF03F0000E956E966E956A8C68046839
:10001000056895928C9295908C90086A076A78EFA3
:1000200003F02DC02FF02E6A2E5007080EE32FBECE
:1000300002D08D9401D08D84969496908D90969058
:100040008D80D8902F362E2AEFD71200956A8C6AB1
:1000500004B802D08C9801D08C88959804BC02D04A
:100060008C9C01D08C8C959C04B402D08C9401D0D3
:100070008C84959495928C824CEF00F010C02DF0FA
:10008000D0DF0FC02DF0CDDF0EC02DF0CADF0DC0C8
:100090002DF0C7DF0494DAD795968C8695968C96CA
:1000A00095928C925BEF00F02B500E6E0E1E2CC0C2
:1000B0000DF00D1EE3D712001A801AC02BF02AC0D3
:1000C0002CF0F2DF1A901AC02BF02AC02CF0ECDFD3
:1000D00012001A9428C02AF0EFDF200E006E002EC6
:1000E000FED700D000001200EA6A280EE96EEF5039
:1000F0000DE0060E016E006A002EFED7012EFBD722
:100100007B0E006E002EFED7EF2EF3D712001A9052
:100110001A921A841A96380E286EDBDF420E006E91
:10012000002EFED700000C0E286ED3DF420E006EAC
:10013000002EFED70000010E286ECBDF020E286EC7
:10014000D3DF060E286EC5DF420E006E002EFED7EE
:10015000000079EF03F0080E016E00008A9293927E
:10016000000028368A90D8B09380D8A093909382CC
:1001700081A2FED7012EF1D700008A92939200004F
:10018000938000000000938281A2FED7016A0000E4
:1001900081B001808A9293928A9093901200080E07
:1001A000296E00C02AF093800000938281A2FED7BE
:1001B00081B0D88081A0D8900136000093928A92B5
:1001C000292EF1D7938000008A902A50D8A49390CA
:1001D0000000938281A2FED700008A9293920000D1
:1001E0008A90939012009380050E006E002EFED729
:1001F0009382060E006E002EFED78A909390050E15
:10020000006E002EFED78A929392D00E286EA3DF46
:10021000286AA1DF9380050E006E002EFED7938220
:10022000060E006E002EFED781A2FED78A90939014
:10023000050E006E002EFED78A929392D10E286E84
:100240008ADF010E006EABDF01C021F0010E006EEF
:10025000A6DF01C020F0010E006EA1DF01C01FF07B
:10026000010E006E9CDF01C01EF0010E006E97DFD4
:1002700001C01DF0010E006E92DF01C01CF0010EE6
:10028000006E8DDF01C01BF0010E006E88DF01C023
:1002900023F0006A84DF01C022F093900000938273
:1002A00081A2FED7050E006E002EFED700D0000002
:1002B0009380050E006E002EFED71200550E216EA3
:1002C000320E206E160E1F6E020E1E6E100E1D6E6A
:1002D000080E1C6E200E1B6E900E236E226E84EF95
:1002E00003F09380050E006E002EFED79382060E5B
:1002F000006E002EFED78A909390050E006E002EA1
:10030000FED78A929392D00E286E25DF286A23DFCB
:1003100021C028F020DF20C028F01DDF1FC028F0FA
:100320001ADF1EC028F017DF1DC028F014DF1CC024
:1003300028F011DF1BC028F00EDF23C028F00BDFF0
:1003400022C028F008DF93900000938281A2FED79C
:10035000050E006E002EFED700D000009380050E23
:10036000006E002EFED712001A8429C02AF0A4DEE7
:10037000200E006E002EFED700D0000012008A0E64
:10038000286EA7DE300E2724286E296EEDDF1200BE
:100390008C0E286E9EDE1F38006E0F0E0016005069
:1003A000300F286E296EE0DF1F500F0B300F286EC4
:1003B000296EDADF200E296ED7DF2038006E0F0E8F
:1003C00000160050300F286E296ECEDF20500F0B24
:1003D000300F286E296EC8DF200E296EC5DF213848
:1003E000006E0F0E00160050300F286E296EBCDF15
:1003F00021500F0B300F286E296EB6DFCC0E286E01
:1004000068DE1D38006E0F0E00160050300F286E8B
:10041000296EAADF1D500F0B300F286E296EA4DF46
:10042000200E296EA1DF1C38006E0F0E0016005042
:10043000300F286E296E98DF1C500F0B300F286E7E
:10044000296E92DF200E296E8FDF1B38006E0F0E93
:1004500000160050300F286E296E86DF1B500F0BE0
:10046000300F286E296E80DF1200938481B410D083
:10047000140E286E39DE938481B40AD02750050803
:1004800002E3272A01D0276A7ADF938481A4FDD76B
:100490009CEF03F028C029F00F0E281628500A08F8
:1004A00002E1060E292629C001F012001ADF70DFD2
:1004B0001200938A81BA65D0140E286E15DE938AD5
:1004C00081BA5FD02750010A0BE0030A16E0010A47
:1004D00021E0070A2CE0010A37E0030A42E04ED08F
:1004E0002150590802E1216A06D0212A21C028F0B2
:1004F000D1DF01C020F0DADF41D02050590802E1FD
:10050000206A06D0202A20C028F0C4DF01C020F0D5
:10051000CDDF34D01F50230802E11F6A06D01F2A06
:100520001FC028F0B7DF01C01FF0C0DF27D01D506B
:10053000310802E11F6A06D01D2A1DC028F0AADF7B
:1005400001C01DF0B3DF1AD01C50120802E11F6A6F
:1005500006D01C2A1CC028F09DDF01C01CF0A6DFBD
:100560000DD01B50990802E11F6A06D01B2A1BC040
:1005700028F090DF01C01BF099DF00D0938A81AA98
:10058000FDD79DEF03F028C029F00F0E2816285044
:100590000F0802E1060E295E29C001F012009388BF
:1005A00081B865D0140E286E9FDD938881B85FD026
:1005B0002750010A0BE0030A16E0010A21E0070AAE
:1005C0002CE0010A37E0030A42E04ED0215203E159
:1005D000590E216E06D0210621C028F0D4DF01C0BB
:1005E00020F064DF41D0205203E1590E206E06D086
:1005F000200620C028F0C7DF01C020F057DF34D02C
:100600001F5203E1230E1F6E06D01F061FC028F0E5
:10061000BADF01C01FF04ADF27D01D5203E1310EBF
:100620001F6E06D01D061DC028F0ADDF01C01DF0F5
:100630003DDF1AD01C5203E1120E1F6E06D01C06BD
:100640001CC028F0A0DF01C01CF030DF0DD01B5211
:1006500003E1990E1F6E06D01B061BC028F093DF26
:1006600001C01BF023DF00D0938881A8FDD79EEF47
:1006700003F02750010A0BE0030A0DE0010A0FE026
:10068000070A11E0010A13E0030A15E018D0D30E9F
:10069000286E1FDD14D0D00E286E1BDD10D0CD0EBD
:1006A000286E17DD0CD08D0E286E13DD08D0900E4D
:1006B000286E0FDD04D0930E286E0BDD00D0A5EF61
:1006C00003F0F86AD09E066A0D6A0E6A0F6A106A15
:1006D000196AC150C00B0F09C16E070EB46E1168C4
:1006E00012681368146815681668176818688AD441
:1006F0000ED50F0E286EEDDC800E286EEADC73DD61
:100700002250900802E0DAD5ECDD276A38DE6BDD96
:1007100021C024F068DD2150245C04E121C024F0D4
:100720002EDE36DE266A256A265027080BE303E113
:1007300025500F0807E399D6BCD631D7252AD8B45F
:0E074000262AF2D72752D8A494D7E4D7030074
:020000040030CA
:0E00000027CC3E1E0087A1000FC00FE00F406E
:00000001FF
;PIC18F4550
;CRC=C2A2  CREATED="10-Aug-20 16:49"
