:100000008BEF00F0F76A140FF66E000EF72209006E
:10001000F5501200C0F9A4B0999282F880908883BC
:10002000C6A1868E000E956E966E956A8C680468E1
:10003000056895928C9295908C90086A076AA4EF57
:1000400000F025C027F0266A265007080EE327BED9
:1000500002D08D9401D08D84969496908D90969038
:100060008D80D8902736262AEFD71200956A8C6AA1
:1000700004B802D08C9801D08C88959804BC02D02A
:100080008C9C01D08C8C959C04B402D08C9401D0B3
:100090008C84959495928C825CEF00F024C025F0BE
:1000A000D0DF23C025F0CDDF22C025F0CADF21C07C
:1000B00025F0C7DF049CDAD7959E8C9E959E8C8E8A
:1000C00095928C9212002150016A205C03E220C0BC
:1000D00000F00CD0006A080E226E20360036215047
:1000E000005CD8B0006E0136222EF7D71200EA6A03
:1000F0001E0EE96EEF500DE0060E016E006A002E36
:10010000FED7012EFBD77B0E006E002EFED7EF2E02
:10011000F3D7F2EF00F0F86AD09E066A0D6A0E6A15
:100120000F6A106A196A1B6A1C6AC150C00B0F095A
:10013000C16E070EB46E11681268136814681568F2
:100140001668176818686ED7B00E216EA40E226E5E
:10015000F90E236EC00E246EA1DF1CC020F00A0E23
:10016000216EB1DF036A0150F2CF1DF0F29E4ADF2B
:100170001DBEF28E1D6E1CC020F00A0E216EA3DF84
:10018000036A0050F2CF1EF0F29E3CDF1EBEF28EDC
:100190001E6E1BC020F00A0E216E95DF036A01500F
:1001A000F2CF1FF0F29E2EDF1FBEF28E1F6E1BC01D
:1001B00020F00A0E216E87DF036A0050F2CF20F094
:1001C000F29E20DF20BEF28E206E1DC021F01EC0E8
:1001D00022F01FC023F0246E61DF020E1D6EFA0EA6
:1001E0001E6E85D71D2EFBD71B2A1B503C0802E133
:0801F0001C2A1B6AB2D70300B0
:020000040030CA
:0E00000027CC3E1E0087A1000FC00FE00F406E
:00000001FF
;PIC18F4550
;CRC=E3A6  CREATED="01-Jun-20 14:41"
