:10000000EBEF00F0F76A140FF66E000EF72209000E
:10001000F55012003F7FBFFF000E956E966E956AF9
:100020008C680468056895928C9295908C90086A0B
:10003000076A04EF01F0006A016A2050D89021B0ED
:1000400000260032013221B200260032013221B4F2
:1000500000260032013221B600260032013221B8DA
:1000600000260032013221BA00260032013221BCC2
:1000700000260032013221BE00260032013278EF24
:1000800000F01E681EC01DF01F6A1FBE03D01F5067
:10009000030826E3036A1F50F2CF20F0F29EB2DF7E
:1000A00020BEF28E936A8A6E938481B404D0030ECC
:1000B0001E6E16D013D0938681B604D0020E1E6E2B
:1000C0000FD00CD0938881B804D0010E1E6E08D0DA
:1000D00005D0938A81BA02D01E6A02D01F2AD5D7D2
:1000E0001E3C01D008D01FC020F0040E216EA3D703
:1000F0001E5001241D6E1DC001F01200EA6A1D0E83
:10010000E96EEF500DE0060E016E006A002EFED77C
:10011000012EFBD77B0E006E002EFED7EF2EF3D7FD
:100120009BEF00F0AEDF01C01AF01A3C01D00CD0FA
:10013000010E1D6EE3D7A5DF01C01AF0A2DF01C0DA
:100140001BF01A501B5CFAE01AC001F007EF01F037
:1001500021C023F0226A225007080EE323BE02D0FA
:100160008D9401D08D84969496908D9096908D80EC
:10017000D8902336222AEFD71200956A8C6A04B8E9
:1001800002D08C9801D08C88959804BC02D08C9CAD
:1001900001D08C8C959C04B402D08C9401D08C84BA
:1001A000959495928C82E3EF00F01DC021F0D0DF92
:1001B0001EC021F0CDDF1FC021F0CADF20C021F01A
:1001C000C7DF0498DAD7959A8C8A959A8C9A95927B
:1001D0008C9212EF01F0F86AD09E066A0D6A0E6AE0
:1001E0000F6A106A196A1A6A1B6AC150C00B0F099C
:1001F000C16E070EB46E1168126813681468156832
:1002000016681768186808D73C0E936E8BD701C024
:100210001CF01C3C01D006D01D6A1E6A1F6A1CC05F
:0802200020F0C3D7F3D703005F
:020000040030CA
:0E00000027CC3E1E0087A1000FC00FE00F406E
:00000001FF
;PIC18F4550
;CRC=3858  CREATED="25-May-20 14:35"
