:1000000089EF01F0F76A140FF66E000EF72209006F
:10001000F5501200C0F9A4B0999282F880908883BC
:10002000C6A1868E000E956E966E956A8C680468E1
:10003000056895928C9295908C90086A076AA3EF58
:1000400001F02AC02CF02B6A2B5007080EE32CBEBF
:1000500002D08D9401D08D84969496908D90969038
:100060008D80D8902C362B2AEFD71200956A8C6A97
:1000700004B802D08C9801D08C88959804BC02D02A
:100080008C9C01D08C8C959C04B402D08C9401D0B3
:100090008C84959495928C825CEF00F029C02AF0B4
:1000A000D0DF28C02AF0CDDF27C02AF0CADF26C063
:1000B0002AF0C7DF049CDAD7959E8C9E959E8C8E85
:1000C00095928C9212002250070B006E2230016E26
:1000D000013201321F0E011601502424E96E000E78
:1000E0002520EA6E016A012A002A01D00136002E7D
:1000F000FDD7235203E00150EF1203D0011E01503F
:10010000EF1612002250070B006E2230016E0132F2
:1001100001321F0E011601502324E96E000E242027
:10012000EA6EEFCF01F0002A01D00132002EFDD798
:100130001200EA6A220EE96EEF500DE0060E016E23
:10014000006A002EFED7012EFBD77B0E006E002E1C
:10015000FED7EF2EF3D7120021C022F0010E236E3E
:100160000F0E256E920E246EAEDF21C022F00F0E10
:10017000246E800E236EC6DF01B02AD0140E226ECC
:10018000D8DF21C022F0010E236E0F0E256E920ED5
:10019000246E99DF21C022F00F0E246E800E236E94
:1001A000B1DF01B015D021C022F0010E236E0F0E79
:1001B000256E920E246E87DF21C022F00F0E246E72
:1001C000800E236E9FDF01A0EED7010E016E02D0DC
:1001D000000E016E1200016A026A006A036A28506A
:1001E00002E1275018E0100E296ED89025362636E9
:1001F000003603362850035C02E12750005C07E319
:100200002750005ED8A003062850035ED880013630
:100210000236292EEAD71200266823C027F024C010
:1002200028F025C029F03ADF73EF01F022C026F054
:1002300021C025F0286A0A0E276ECDDF00C023F00A
:1002400003C024F003C003F00050F2CF25F0F29E6B
:10025000D9DE25BEF28E1B6E22C026F021C025F00D
:10026000286A0A0E276EB7DF02C024F001C023F00F
:1002700002C026F001C025F0286A0A0E276EABDF07
:1002800000C023F003C024F003C003F00050F2CFFD
:1002900025F0F29EB7DE25BEF28E1C6E22C026F03F
:1002A00021C025F0286A640E276E95DF02C024F075
:1002B00001C023F002C003F00150F2CF25F0F29EFE
:1002C000A1DE25BEF28E1D6E1D50C00805E11D6821
:1002D0001C50C00801E11C681DC023F01CC024F0A4
:1002E0001BC025F099D712002250016A215C03E25D
:1002F00021C000F00CD0006A080E236E21360036B3
:100300002250005CD8B0006E0136232EF7D7E6EFFE
:1003100001F0F86AD09E066A0D6A0E6A0F6A106ACA
:10032000196A1E901F6A1E92C150C00B0F09C16E40
:10033000070EB46E116812681368146815681668A1
:10034000176818686FD6E80ED56ED76AD66AC00EE1
:10035000266E276E286E296EA1DE0B0E216EFCDE46
:1003600001521FE0206A205002081BE3266827681C
:100370002868296893DE020E216EFA0E226ED9DEFD
:10038000212EFBD7C00E266E276E286E296E86DEC4
:10039000020E216EFA0E226ECCDE212EFBD7202A11
:1003A000E2D70D0E216ED8DE015203E01E70D76A2F
:1003B000D66A1EA031D0D6501A6E226A1AC021F019
:1003C00035DF1AC021F00A0E226E8ED7005224E1CA
:1003D0001A5222E01F5003081AE31EB218D02668F2
:1003E0002768286829685ADE020E216EFA0E226EEE
:1003F000A0DE212EFBD7226A1AC021F017DF020EE1
:10040000216EFA0E226E95DE212EFBD71F2A1F5079
:0C041000040802E11E821F6AA0D703004E
:020000040030CA
:0E00000027CC3E1E0087A1000FC00FE00F406E
:00000001FF
;PIC18F4550
;CRC=7B04  CREATED="08-Jun-20 14:02"
