:10000000AAEF09F0F76A140FF66E000EF722090046
:10001000F55012000001020503040102200307034A
:10002000060602050303060602030304070307206E
:100030002007070606030304000606050304010162
:10004000072020070006020503040006020303043C
:100050002020202020200006020520202020202013
:1000600007200720200706070703070720070303C9
:10007000070703072020200303032001202020205E
:10008000070101070303200120200120F76A9C0FCC
:10009000F66E000EF7220900F5501200070F1F1F21
:1000A0001F1F1F1F1F1F1F00000000001C1E1F1FFF
:1000B0001F1F1F1F00000000001F1F1F1F1F1F1FEB
:1000C0001F1F1E1C1F1F1F1F1F1F0F071F1F1F008B
:1000D00000001F1F1F1F1F1F1F1F1F1FF76AEC0F8E
:1000E000F66E000EF7220900F550120080C094D47D
:1000F000F76A000FF66E010EF7220900F5501200A4
:100100003F7FBFFFF76A140FF66E010EF72209005A
:10011000F5501200070101070303F76A2A0FF66E74
:10012000010EF7220900F5501200202020070107D8
:10013000000E956E966E956A8C68046805689592B7
:100140008C9295908C90086A076AC7EF09F051C4A9
:1001500053F40401526B525107080EE353BF02D00F
:100160008D9401D08D84969496908D9096908D80EC
:10017000D8905337522BEFD700011200956A8C6A42
:1001800004B802D08C9801D08C88959804BC02D019
:100190008C9C01D08C8C959C04B402D08C9401D0A2
:1001A0008C84959495928C82E4EF00F010C051F409
:1001B000CEDF0FC051F4CBDF0EC051F4C8DF0DC04D
:1001C00051F4C5DF0494DAD795968C8695968C9673
:1001D00095928C92120004014FC40EF00E1E50C472
:1001E0000DF00D1E0001E2DF12001A801AC04FF45C
:1001F0004EC450F4F0DF1A901AC04FF44EC450F4BD
:10020000EADF12001A944DC44EF4EFDF200E006EA8
:10021000002EFED700D000001200040EEA6E470E3A
:10022000E96EEF500DE0060E016E006A002EFED75B
:10023000012EFBD77B0E006E002EFED7EF2EF3D7DC
:1002400012001A901A921A841A96380E04014D6FF1
:100250000001D8DF420E006E002EFED700000C0E0B
:1002600004014D6F0001CEDF420E006E002EFED75E
:100270000000010E04014D6F0001C4DF020E0401F5
:10028000476F0001CADF060E04014D6F0001BADF9F
:10029000420E006E002EFED70000C9EF09F0080ED6
:1002A000016E00008A9293920000040146378A9002
:1002B000D8B09380D8A09390938281A2FED7012ECC
:1002C00001D002D00001EDD700008A929392000085
:1002D000938000000000938281A2FED7016A000093
:1002E00081B001808A9293928A90939000011200CB
:1002F000080E0401476F00C048F493800000938209
:1003000081A2FED781B0D88081A0D89001360000AC
:1003100093928A92472FF1D7938000008A90485198
:10032000D8A493900000938281A2FED700008A9205
:10033000939200008A909390000112009380050E22
:10034000006E002EFED79382060E006E002EFED7A2
:100350008A909390050E006E002EFED78A9293929B
:10036000D00E0401466F00019ADF0401466B0001C4
:1003700096DF9380050E006E002EFED79382060E48
:10038000006E002EFED781A2FED78A909390050EB4
:10039000006E002EFED78A929392D10E0401466F12
:1003A00000017DDF010E006EA3DF01C021F0010E10
:1003B000006E9EDF01C020F0010E006E99DF01C0CB
:1003C0001FF0010E006E94DF01C01EF0010E006EE2
:1003D0008FDF01C01DF0010E006E8ADF01C01CF02E
:1003E000010E006E85DF01C01BF0010E006E80DF84
:1003F00001C023F0006A7CDF01C022F0939000006E
:10040000938281A2FED7050E006E002EFED700D08B
:1004100000009380050E006E002EFED71200030E22
:100420000401485F0AE3040EEA6E480EE96EEF50DD
:1004300004E001D000D0EF2EFDD700011200929A07
:10044000929A899A020E0401476FF90E486F0001D3
:10045000E6DF0401472FF9D7928A070E006E002EBF
:10046000FED700D0000080BA03D0000E016E12D07B
:100470006B0E006E002EFED700D00000469180AAC1
:100480004681F00E486F0001CADF000E040146B13C
:10049000010E016E00011200929A929A899A100E32
:1004A000006E002EFED70000040149530EE0929A20
:1004B000929A898A100E006E002EFED7000080BA34
:1004C00003D0000E016E1FD00DD0929A929A899A95
:1004D000100E006E002EFED7000080AA03D0000E82
:1004E000016E11D0520E006E002EFED700D000001B
:1004F000929A929A898A520E006E002EFED700D0F0
:100500000000010E016E000195EF02F0010E0401E2
:10051000476F4751080811E3D8904633000ED8B012
:10052000010E486F496F0001B7D7015203E1000E79
:10053000016E06D00401472BECD7010E016E0001BD
:1005400012007DDFCC0E0401466F0001DFDF4E0E8E
:100550000401466F0001DADF0401466B0001D6DFBB
:100560000401466B0001D2DF7F0E0401466F0001DB
:10057000CDDF65DFCC0E0401466F0001C7DF480EFA
:100580000401466F0001C2DFCDEF09F01A844AC4AE
:100590004EF42BDE200E006E002EFED700D00000A1
:1005A0001200550E216E320E206E160E1F6E010EB9
:1005B0001E6E100E1D6E080E1C6E200E1B6E900E11
:1005C000236E910E226EF4EF09F09380050E006EFB
:1005D000002EFED79382060E006E002EFED78A9064
:1005E0009390050E006E002EFED78A929392D00E45
:1005F0000401466F000153DE0401466B00014FDE2B
:1006000021C046F44CDE20C046F449DE1FC046F44B
:1006100046DE1EC046F443DE1DC046F440DE1CC06C
:1006200046F43DDE1BC046F43ADE23C046F437DE16
:1006300022C046F434DE93900000938281A2FED75C
:10064000050E006E002EFED700D000009380050E30
:10065000006E002EFED7F6EF09F004014BC410F037
:10066000101E4CC40FF00F1E0001A0DD12002C84E0
:100670002CC04BF44AC44CF4F0DF2C942CC04BF447
:100680004AC44CF4EADF12002C9847C44AF4EFDF66
:1006900012002C802C822C942C962C9A46C447F461
:1006A000F3DF100E006E002EFED700000C0E0401CA
:1006B000476F0001E9DF100E006E002EFED700002C
:1006C000010E0401476F0001DFDF020E0401476FD6
:1006D0000001A3DD060E0401476F0001D5DF100EF7
:1006E000006E002EFED70000120004016651680360
:1006F000F3CF01F0F4CF00F06903F3500026675107
:100700006803F3500020026E0001120004014653FA
:1007100003E04869476902D0486B476B2D6A2D504A
:100720001F082EE32E6A2E500F0828E3676B2DC09A
:1007300066F4696B200E686F0001D7DF02C003F01A
:100740000150010F0401496F000E02204A6F036A35
:100750002EC002F0D89002360336025049270350CB
:100760004A232F0E4925E96E000E4A21EA6E48C43D
:10077000ECFFED5247C4EFFF2E2AD5D72D2ACFD755
:100780002F8000011200929A929A899A160E006E9A
:10079000002EFED700D00000928A070E006E002EB9
:1007A000FED700D000000401489180BA4881A60E0F
:1007B000006E002EFED70000000E48B1010E016E43
:1007C0000001EBEF03F0010E0401466F46510808EB
:1007D0000BE30001D8D7015202E1D89001D0D880B4
:1007E00004014733462BF2D747C401F00001120041
:1007F000CC0E0401466F000189DE440E0401466FF1
:10080000000184DE1CDECC0E0401466F00017EDE9A
:10081000BE0E0401466F000179DED5DF01C025F070
:10082000D2DF01C026F026C029F025C028F02930EB
:10083000036E2830026E0332023203320232033278
:10084000023202C02AF028500F0B0401466F476B9A
:1008500047C467F4666F030E696FE80E686F0001A6
:1008600044DF02C047F404010230036E0130026E1F
:1008700003320232033202320332023202C02BF060
:1008800000011AEF0AF021380401356F0F0E3517F9
:1008900021500F0B346F2038366F0F0E3617205053
:1008A0000F0B376F1F38396F0F0E39171F500F0B93
:1008B000386F1E500F0B3A6F000121EF0AF0036AE8
:1008C00004014A51F2CF4CF4F29E000107DC04010E
:1008D0004CBFF28E4B254C6F4D6F000193DC120024
:1008E000006A016A04014F51D89050B100260032CD
:1008F000013250B300260032013250B500260032DA
:10090000013250B700260032013250B900260032C1
:10091000013250BB00260032013250BD00260032A9
:10092000013250BF0026003201320001120047C4DC
:100930004AF448C44BF4C3DF0401336B33BF03D024
:10094000335105082DE33351030809E1010E472512
:10095000496F4A6F48C44BF40001B1DF040146C43B
:100960004FF4060E506F0001BBDF015004014A6BCB
:10097000496F036A33514925016E4A5103220150E0
:10098000F2CF49F4F29E000102EC00F0040149BFED
:10099000F28E496F4A6F0001F9DD0401332BCED787
:1009A0000001120047C44AF448C44BF488DF040134
:1009B000336B33BF03D0335105082DE333510308A4
:1009C00009E1010E4725496F4A6F48C44BF4000105
:1009D00076DF040146C44FF4060E506F000180DF3D
:1009E000015004014A6B496F036A33514925016E76
:1009F0004A5103220150F2CF49F4F29E000182ECE9
:100A000000F0040149BFF28E496F4A6F0001BEDD5C
:100A10000401332BCED700016EEF05F047C44AF432
:100A200048C44BF44CDF0401336B33BF03D0335164
:100A300005082DE33351030809E1010E4725496FED
:100A40004A6F48C44BF400013ADF040146C44FF436
:100A5000060E506F000144DF015004014A6B496FDC
:100A6000036A33514925016E4A5103220150F2CFE6
:100A700049F4F29E00018DEC00F0040149BFF28EB2
:100A8000496F4A6F000182DD0401332BCED700018C
:100A900076EF05F034C446F40401476B486B00015F
:100AA00046DF35C446F4020E0401476F486B00016F
:100AB0003EDF04013A2D01D00AD03AC446F4020EBA
:100AC000476F110E486F000132DF10D00401466BF2
:100AD000020E476F0E0E486F000164D70401466B8B
:100AE000020E476F110E486F000198D723EF0AF0EE
:100AF00004014851016A475D03E247C400F00CD08D
:100B0000006A080E496F473700364851005CD8B07C
:100B1000006E0136492FF7D7000112002BC047F4B1
:100B20000A0E0401486F0001E3DF300E00240401C7
:100B30003F6F406B2BC047F40A0E486F0001D8DFAF
:100B400001C047F40A0E0401486F0001D1DF300EE6
:100B5000002404013D6F3E6B2BC047F4640E486FC8
:100B60000001C6DF300E012404013B6F3C6B2AC03C
:100B700047F40A0E486F0001BBDF300E0024040169
:100B8000416F426B2AC047F40A0E486F0001B0DF84
:100B900001C047F40A0E0401486F0001A9DF300EBE
:100BA00000240401436F446B000125EF0AF02C88F8
:100BB00049C44AF45CDD1200300E0401476F0001A5
:100BC00063DD930E0401476F00015EDD43C449F409
:100BD000EEDF41C449F4EBDF300E0401476F000142
:100BE00053DD9B0E0401476F00014EDD3BC449F409
:100BF000DEDF3DC449F4DBDF3FC449F4D8DF27EF33
:100C00000AF0040163511F0804E2800E6227200EDF
:100C1000635F63C42DF062392E6E0F0E2E16625183
:100C20000F0BFF0A100F656F642D35D0676B2DC059
:100C300066F4696B200E686F000157DD02C003F097
:100C40000150010F0401666F000E0220676F036AF6
:100C50002EC002F0D89002360336025066270350A9
:100C600067232F0E6625016E000E6721036E01C0FB
:100C7000E9FFEA6E036A010E026E6551006E05E03F
:100C8000D89002360336002EFBD70250EF120350E5
:100C9000EC10EF6E39D0676B2DC066F4696B200ED7
:100CA000686F000122DD02C003F00150010F040152
:100CB000666F000E0220676F036A2EC002F0D890A4
:100CC0000236033602506627035067232F0E66252F
:100CD000016E000E6721036E01C0E9FFEA6E036A30
:100CE000010E026E6551006E05E0D89002360336A3
:100CF000002EFBD70250FF0A006EFF0E031A0050B1
:100D0000EF160350EC14EF6E2F8000011200010E5D
:100D100004015B6F5C6F616B5251545D626F625195
:100D200062AF03D0000ED8806255036A596F03C0CA
:100D30005AF45351555D626F625162AF03D0000E99
:100D4000D8806255036A576F03C058F45251545DFE
:100D500001E25B695351555D01E25C6958515A5D8E
:100D60003AE303E15751595D36E3D8905737583786
:100D70005951575D006E5A51585900C05DF45E6F6D
:100D800059515D5D5F6F5A515E59606F5A5303E16F
:100D90006151595D1FE352C462F453C463F456C4F5
:100DA00064F400012EDF04015EAF08D057515D27C7
:100DB00058515E235B515225526F0AD05F515D2717
:100DC00060515E235B515225526F5C515325536F26
:100DD000612BDCD735D0D89059375A375751595DE8
:100DE000006E58515A5900C05DF45E6F57515D5DF9
:100DF0005F6F58515E59606F585303E16151575D01
:100E00001FE352C462F453C463F456C464F4000193
:100E1000F8DE04015EAF08D059515D275A515E23B8
:100E20005C515325536F0AD05F515D2760515E239B
:100E30005B515225526F5C515325536F612BDCD7A8
:100E40000001120004014B6B48C44CF4010ED88021
:100E500048554D6F495361E04B51465D4E6F4C51C3
:100E600047254F6F4B514625506F4C514725516FC9
:100E70004EC452F44FC453F450C454F4556F4AC492
:100E800056F4000144DF04014B51465D4E6F4C5156
:100E9000475D4F6F4B514625506F4C51475D516F29
:100EA0004EC452F44FC453F450C454F4556F4AC462
:100EB00056F400012CDF04014C51465D4E6F4B513E
:100EC00047254F6F4C514625506F4B514725516F69
:100ED0004EC452F44FC453F450C454F4556F4AC432
:100EE00056F4000114DF04014C51465D4E6F4B5126
:100EF000475D4F6F4C514625506F4B51475D516FC9
:100F00004EC452F44FC453F450C454F4556F4AC401
:100F100056F40001FCDE70D0040146514B254E6FA3
:100F200047514C254F6F4EC462F4636F4AC464F45A
:100F3000000167DE040146514C254E6F47514B2599
:100F40004F6F4EC462F4636F4AC464F4000159DE0B
:100F500004014B51465D4E6F47514C254F6F4EC4B7
:100F600062F4636F4AC464F400014BDE04014C5127
:100F7000465D4E6F47514B254F6F4EC462F4636F11
:100F80004AC464F400013DDE040146514C254E6F15
:100F90004B51475D4F6F4EC462F4636F4AC464F4B3
:100FA00000012FDE040146514B254E6F4C51475D29
:100FB0004F6F4EC462F4636F4AC464F4000121DED3
:100FC00004014B51465D4E6F4C51475D4F6F4EC40F
:100FD00062F4636F4AC464F4000113DE04014C51EF
:100FE000465D4E6F4B51475D4F6F4EC462F4636F69
:100FF0004AC464F4000105DE04014DAF0ED04B512C
:101000004B2B4E6F020E4F6F4EC450F4000168DC44
:101010000150030F04014D2711D04B514B2B4E6F44
:101020004C514C074E5D4E6F020E4F6F4EC450F444
:10103000000156DC0150050F04014D274B51800A79
:10104000006E4C51800A005CD8B404D7D8A002D7F7
:101050000001120004014A532EE04851465D05E2AA
:1010600046C44DF448C44EF404D048C44DF446C4BC
:101070004EF44951475D05E247C44FF449C450F46A
:1010800004D049C44FF447C450F44D514E5D12E3AF
:101090004FC44CF44C51505D0BE34DC462F44CC44E
:1010A00063F44BC464F40001ACDD04014C2BF2D7B3
:1010B0004D2BEBD72ED046C452F447C453F448C44A
:1010C00054F447C455F44BC456F4000120DE46C422
:1010D00052F449C453F448C454F449C455F44BC4BD
:1010E00056F415DE46C452F447C453F446C454F4CF
:1010F00049C455F44BC456F40ADE48C452F447C4FC
:1011000053F448C454F449C455F44BC456F4FFDDB9
:101110000401000112002FA073D02D6A2D501F086A
:101120006EE32D5080090401466F476F000144ECC7
:1011300003F0800E0401476F000144EC03F02E6AB7
:101140002E500F085AE30401676B2DC066F4696BDB
:10115000200E686F000175EC03F002C003F001502F
:10116000010F0401466F000E0220476F036A2EC074
:1011700002F0D89002360336025046270350472328
:10118000010E4625016E000E4721036E01502F0F00
:10119000E96E000E0320EA6EEFCF46F446C449F430
:1011A000000105DD0401676B2DC066F4696B200E3C
:1011B000686F000175EC03F002C003F00150010FED
:1011C0000401466F000E0220476F036A2EC002F032
:1011D000D8900236033602504627035047232F0E7D
:1011E0004625E96E000E4721EA6EEFCF48F448C469
:1011F00049F40001DCDC2E2AA3D72D2A8FD72F90AB
:101200001200040132B321D0360E466F000149ECC2
:1012100003F03F0E0401466F130E476F0F0E486F29
:10122000496B010E4A6F00010DDE2A0E0401466F64
:10123000476F540E486F3F0E496F4A6B010E4B6F5C
:10124000000108DF68DF21D00401360E466F00017F
:1012500049EC03F03F0E0401466F300E476F0F0E4E
:10126000486F496B010E4A6F0001ECDD2A0E040144
:10127000466F050E476F540E486F1E0E496F4A6B3E
:10128000010E4B6F0001E6DE46DF33EF0AF004018A
:10129000476947C446F4486B48BF03D04851030828
:1012A00029E3036A4851F2CF49F4F29E000178EC39
:1012B00000F0040149BFF28E936A8A6E938481B470
:1012C00004D0030E476F16D013D0938681B604D096
:1012D000020E476F0FD00CD0938881B804D0010E56
:1012E000476F08D005D0938A81BA02D0476B02D0ED
:1012F000482BD2D7473D01D00BD048C44FF4040E41
:10130000506F000170EC04F0040147510124466F56
:1013100046C401F000011200BADF01C030F404013C
:10132000303D01D012D0010E476F00010DEC01F0ED
:10133000AEDF01C030F4ABDF01C031F40401305145
:10134000315DD8A402D00001F6D730C401F000010D
:1013500035EF0AF0F86AD09E066A0D6A0E6A0F6AC7
:10136000106A196A0401306B316B3293C150C00BA3
:101370000F09C16E070EB46E116812681368146805
:101380001568166817681868000198EF00F021EFDB
:1013900001F09EEC01F0A1EF02F0276A400E04017B
:1013A0004D6F000102EC01F00401336B33BF03D039
:1013B00033513F0813E3036A3351F2CF46F4F29EF0
:1013C000000146EC00F0040146BFF28E466F4A6F02
:1013D0000001C6EC02F00401332BE8D7225091083B
:1013E00006E00001D1EF02F0E5EF02F00401000198
:1013F0009EEC01F021C024F0300E0401466F000184
:1014000049EC03F0360E0401466F000149EC03F08D
:101410000401466B000186EC03F09EEC01F02150C4
:10142000245C02E021C024F01FEC02F00152D8A499
:10143000F8EF03F02750255C02E025C027F043EFCA
:1014400004F04AEF05F08EEF05F0DCEF05F0360E04
:101450000401466F000149EC03F00401466B0001F2
:1014600086EC03F0CED657DE57D701C045F4040111
:10147000453D01D004D045510C0801E13273000113
:04148000CCD70300C2
:020000040030CA
:0E00000027CC3E1E0087A1000FC00FE00F406E
:00000001FF
;PIC18F4550
;CRC=3C45  CREATED="17-Aug-20 16:03"
