:100000008CEF00F0000E956E966E956A8C68046811
:10001000056895928C9295908C90086A076AA3EF78
:1000200000F033C035F0346A345007080EE335BEB3
:1000300002D08D9401D08D84969496908D90969058
:100040008D80D8903536342AEFD71200956A8C6AA5
:1000500004B802D08C9801D08C88959804BC02D04A
:100060008C9C01D08C8C959C04B402D08C9401D0D3
:100070008C84959495928C824CEF00F02FC033F0D5
:10008000D0DF30C033F0CDDF31C033F0CADF32C053
:1000900033F0C7DF0498DAD7959A8C8A959A8C9AB0
:1000A00095928C9265EF00F028C02BF027C02CF0C1
:1000B0002AC02DF029C02EF02BC02FF02CC030F01C
:1000C0002DC031F02EC032F0D9D778EF00F021C02A
:1000D00023F022C024F020C026F01FC025F024C049
:1000E00028F023C027F026C02AF025C029F0DCD74D
:1000F0001200EA6A200EE96EEF500DE0060E016E66
:10010000006A002EFED7012EFBD77B0E006E002E5C
:10011000FED7EF2EF3D71200F86AD09E066A0D6A5A
:100120000E6A0F6A106A196AC150C00B0F09C16EBE
:10013000070EB46E116812681368146815681668A3
:10014000176818685FD71E6A1D6A1C6A1B6A1A6ADC
:100150001A500F082CE31EC022F01DC021F01CC055
:1001600020F01BC01FF0B3DF040E1F6EFA0E206ECE
:10017000C0DF1F2EFBD71B34206E1C34216E1D34B4
:10018000226E1E34236E2036213622362336FC0E94
:100190002016030E20241B6E000E21201C6E000E64
:1001A00022201D6E000E23201E6E1A2AD1D71A6A35
:1001B0001A500F081CE31EC022F01DC021F01CC005
:1001C00020F01BC01FF083DF040E1F6EFA0E206E9E
:1001D00090DF1F2EFBD71B361C361D361E361B36F6
:1001E0001C361D361E36FC0E1B161A2AE1D7AFD759
:0201F00003000A
:020000040030CA
:0E00000027CC3E1E0087A1000FC00FE00F406E
:00000001FF
;PIC18F4550
;CRC=9602  CREATED="08-Jun-20 22:14"
