:10000000F5EF07F0F76A140FF66E000EF7220900FD
:10001000F5501200C0F9A4B0999282F880908883BC
:10002000C6A1868EF76A340FF66E000EF72209001D
:10003000F55012007FBFDFEFF7FBFDFEF76A4C0FB4
:10004000F66E000EF7220900F550120000010205BD
:100050000304010220030703060602050303060644
:10006000020303040703072020070706060303040F
:10007000000606050304010107202007000602050B
:100080000304000602030304202020202020000691
:100090000205202020202020072007202007060717
:1000A0000703070720070303070703072020200390
:1000B0000303200120202020070101070303200162
:1000C00020200120F76AD40FF66E000EF7220900F7
:1000D000F5501200070F1F1F1F1F1F1F1F1F1F009C
:1000E000000000001C1E1F1F1F1F1F1F000000001C
:1000F000001F1F1F1F1F1F1F1F1F1E1C1F1F1F1F33
:100100001F1F0F071F1F1F0000001F1F1F1F1F1F84
:100110001F1F1F1FF76A240FF66E010EF72209003A
:10012000F550120080C094D447494F0050485554B0
:10013000000047494159000054485500000E956E93
:10014000966E956A8C680468056895928C92959075
:100150008C90086A076A0DEF08F03DC43FF4040173
:100160003E6B3E5107080EE33FBF02D08D9401D095
:100170008D84969496908D9096908D80D8903F37F0
:100180003E2BEFD700011200956A8C6A04B802D0AA
:100190008C9801D08C88959804BC02D08C9C01D09E
:1001A0008C8C959C04B402D08C9401D08C84959452
:1001B00095928C82EAEF00F010C03DF4CEDF0FC0C4
:1001C0003DF4CBDF0EC03DF4C8DF0DC03DF4C5DF0C
:1001D0000494DAD795968C8695968C9695928C9207
:1001E000120004013BC40EF00E1E3CC40DF00D1EA7
:1001F0000001E2DF12001A801AC03BF43AC43CF45A
:10020000F0DF1A901AC03BF43AC43CF4EADF120063
:100210001A9439C43AF4EFDF200E006E002EFED798
:1002200000D000001200040EEA6E330EE96EEF50AB
:100230000DE0060E016E006A002EFED7012EFBD7E0
:100240007B0E006E002EFED7EF2EF3D712001A9011
:100250001A921A841A96380E0401396F0001D8DFF9
:10026000420E006E002EFED700000C0E0401396F06
:100270000001CEDF420E006E002EFED70000010E00
:100280000401396F0001C4DF020E0401336F000165
:10029000CADF060E0401396F0001BADF420E006E9C
:1002A000002EFED700000FEF08F0080E016E0000D0
:1002B0008A9293920000040132378A90D8B09380DA
:1002C000D8A09390938281A2FED7012E01D002D0B4
:1002D0000001EDD700008A92939200009380000005
:1002E0000000938281A2FED7016A000081B00180E4
:1002F0008A9293928A90939000011200080E040152
:10030000336F00C034F493800000938281A2FED743
:1003100081B0D88081A0D8900136000093928A9253
:10032000332FF1D7938000008A903451D8A4939052
:100330000000938281A2FED700008A92939200006F
:100340008A909390000112009380050E006E002E9B
:10035000FED79382060E006E002EFED78A909390F1
:10036000050E006E002EFED78A929392D00E0401E5
:10037000326F00019ADF0401326B000196DF938037
:10038000050E006E002EFED79382060E006E002E24
:10039000FED781A2FED78A909390050E006E002EA4
:1003A000FED78A929392D10E0401326F00017DDF55
:1003B000010E006EA3DF01C021F0010E006E9EDF72
:1003C00001C020F0010E006E99DF01C01FF0010E88
:1003D000006E94DF01C01EF0010E006E8FDF01C0C1
:1003E0001DF0010E006E8ADF01C01CF0010E006ED0
:1003F00085DF01C01BF0010E006E80DF01C023F01D
:10040000006A7CDF01C022F093900000938281A2F9
:10041000FED7050E006E002EFED700D000009380A0
:10042000050E006E002EFED712001A8436C43AF470
:10043000E2DE200E006E002EFED700D0000012007B
:10044000550E216E320E206E160E1F6E020E1E6E9F
:10045000100E1D6E080E1C6E200E1B6E900E236E6D
:10046000910E226E37EF08F09380050E006E002E7D
:10047000FED79382060E006E002EFED78A909390D0
:10048000050E006E002EFED78A929392D00E0401C4
:10049000326F00010ADF0401326B000106DF21C068
:1004A00032F403DF20C032F400DF1FC032F4FDDE7F
:1004B0001EC032F4FADE1DC032F4F7DE1CC032F486
:1004C000F4DE1BC032F4F1DE23C032F4EEDE22C0D3
:1004D00032F4EBDE93900000938281A2FED7050EEA
:1004E000006E002EFED700D000009380050E006E37
:1004F000002EFED739EF08F0040137C410F0101EAB
:1005000038C40FF00F1E000157DE1200258425C0ED
:1005100037F436C438F4F0DF259425C037F436C4F8
:1005200038F4EADF1200259833C436F4EFDF120006
:100530002580258225942596259A32C433F4F3DF4D
:10054000100E006E002EFED700000C0E0401336F5B
:100550000001E9DF100E006E002EFED70000010E34
:100560000401336F0001DFDF020E0401336F00016D
:100570005ADE060E0401336F0001D5DF100E006E47
:10058000002EFED700001200040152515403F3CF95
:1005900001F0F4CF00F05503F350002653515403FB
:1005A000F3500020026E000112000401325303E0F8
:1005B0003469336902D0346B336B266A26501F08C6
:1005C0002EE3276A27500F0828E3536B26C052F406
:1005D000556B200E546F0001D7DF02C003F00150AD
:1005E000010F0401356F000E0220366F036A27C029
:1005F00002F0D890023603360250352703503623D6
:10060000280E3525E96E000E3621EA6E34C4ECFF63
:10061000ED5233C4EFFF272AD5D7262ACFD728801B
:100620000001120021500F0B036AF2CF32F4F29E48
:10063000E9DC040132BFF28E116E2138006E0F0E1C
:1006400000160050036AF2CF32F4F29E0001DADCA9
:10065000040132BFF28E126EBF0E136E20500F0BCC
:10066000036AF2CF32F4F29E0001CCDC040132BF07
:10067000F28E146E2038006E0F0E00160050036AC2
:10068000F2CF32F4F29E0001BDDC040132BFF28EE3
:10069000156EBF0E166E1F500F0B036AF2CF32F4A9
:1006A000F29E0001AFDC040132BFF28E176E1F38DC
:1006B000006E0F0E00160050036AF2CF32F4F29E65
:1006C0000001A0DC040132BFF28E186E00015CEF65
:1006D00008F0956A8C6A05BC02D08C9C01D08C8C89
:1006E000959C05B802D08C9801D08C88959805B45B
:1006F00002D08C9401D08C84959495908C801200BB
:10070000036A04013351F2CF35F4F29E00018ADC12
:10071000040135BFF28E016E356F351F35C43DF4CF
:1007200000011BDD040134C435F4351F35C43DF42C
:10073000000113DD0598CDDF959A8C8A959A8C9AE5
:1007400095908C90E1EF03F0040132C434F4341F2F
:1007500034C43DF4000101DD040133C434F4341F1A
:1007600034C43DF40001F9DC0598B3DF959A8C8A16
:10077000959A8C9A95908C90C3EF03F0040132699E
:1007800033690001E1D7E7EF03F0196A1950070850
:1007900020E3036A1950110FE96E000E0320EA6E80
:1007A000EF3C01D014D0036A1950110FE96E000E0E
:1007B0000320EA6EEFCF32F419C033F432C434F4BC
:1007C0009FD7A60E006E002EFED70000D7D7192A9D
:1007D000DDD764EF08F0213804012C6F0F0E2C17C1
:1007E00021500F0B2B6F20382D6F0F0E2D1720501F
:1007F0000F0B2E6F1F38306F0F0E30171F500F0B5F
:100800002F6F00016AEF08F00900F5520CE0F6CFF7
:1008100032F4F7CF33F4F5CF36F407DE32C4F6FF07
:1008200033C4F7FFF1D71200036A04013651F2CF47
:1008300038F4F29E00016EDC040138BFF28E3725D9
:10084000386F396F0001E4DC1200006A016A0401AC
:100850003B51D8903CB10026003201323CB3002617
:10086000003201323CB50026003201323CB700268E
:10087000003201323CB90026003201323CBB002676
:10088000003201323CBD0026003201323CBF00265E
:10089000003201320001120033C436F434C437F49C
:1008A000C3DF04012A6B2ABF03D02A5105082DE3B8
:1008B0002A51030809E1010E3325356F366F34C420
:1008C00037F40001B1DF040132C43BF4060E3C6F83
:1008D0000001BBDF01500401366B356F036A2A51FA
:1008E0003525016E365103220150F2CF35F4F29EC8
:1008F00000011EEC00F0040135BFF28E356F366F3B
:10090000000193DD04012A2BCED700011200820ED4
:100910000401396F00017CDC280EF66E010EF76EC3
:1009200073DF880E0401396F000172DC2C0EF66E45
:10093000010EF76E69DF8F0E0401396F000168DC6C
:10094000320EF66E010EF76E5FDF30C432F4020E27
:100950000401336F346B00019FDF2FC432F4020EA9
:100960000401336F030E346F000196DF2DC432F49F
:10097000020E0401336F070E346F00018DDF2EC4A9
:1009800032F4020E0401336F0A0E346F000184DF6B
:100990002CC432F4020E0401336F0E0E346F0001CA
:1009A0007BDF2BC432F4020E0401336F110E346F5F
:1009B000000172DF6BEF08F0258835C436F4A6DD40
:1009C000120004014F511F0804E2800E4E27200E32
:1009D0004F5F4FC426F04E39276E0F0E27164E512B
:1009E0000F0BFF0A100F516F502D35D0536B26C0DF
:1009F00052F4556B200E546F0001C6DD02C003F0A7
:100A00000150010F0401526F000E0220536F036A60
:100A100027C002F0D8900236033602505227035006
:100A20005323280E5225016E000E5321036E01C080
:100A3000E9FFEA6E036A010E026E5151006E05E095
:100A4000D89002360336002EFBD70250EF12035027
:100A5000EC10EF6E39D0536B26C052F4556B200E5C
:100A6000546F000191DD02C003F00150010F040139
:100A7000526F000E0220536F036A27C002F0D89015
:100A8000023603360250522703505323280E5225B4
:100A9000016E000E5321036E01C0E9FFEA6E036A86
:100AA000010E026E5151006E05E0D89002360336F9
:100AB000002EFBD70250FF0A006EFF0E031A0050F3
:100AC000EF160350EC14EF6E288000011200010EA7
:100AD0000401476F486F4D6B3E51405D4E6F4E5164
:100AE0004EAF03D0000ED8804E55036A456F03C049
:100AF00046F43F51415D4E6F4E514EAF03D0000E54
:100B0000D8804E55036A436F03C044F43E51405DA4
:100B100001E247693F51415D01E248694451465D48
:100B20003AE303E14351455D36E3D8904337443718
:100B30004551435D006E4651445900C049F44A6F27
:100B40004551495D4B6F46514A594C6F465303E13D
:100B50004D51455D1FE33EC44EF43FC44FF442C4C3
:100B600050F400012EDF04014AAF08D04351492759
:100B700044514A2347513E253E6F0AD04B514927E5
:100B80004C514A2347513E253E6F48513F253F6F08
:100B90004D2BDCD735D0D890453746374351455D8E
:100BA000006E4451465900C049F44A6F4351495DB3
:100BB0004B6F44514A594C6F445303E14D51435DCF
:100BC0001FE33EC44EF43FC44FF442C450F400014E
:100BD000F8DE04014AAF08D04551492746514A235F
:100BE00048513F253F6F0AD04B5149274C514A236A
:100BF00047513E253E6F48513F253F6F4D2BDCD777
:100C0000000112000401376B34C438F4010ED8809F
:100C10003455396F355361E03751325D3A6F385191
:100C200033253B6F375132253C6F385133253D6FAB
:100C30003AC43EF43BC43FF43CC440F4416F36C474
:100C400042F4000144DF04013751325D3A6F3851FC
:100C5000335D3B6F375132253C6F3851335D3D6F0B
:100C60003AC43EF43BC43FF43CC440F4416F36C444
:100C700042F400012CDF04013851325D3A6F3751E4
:100C800033253B6F385132253C6F375133253D6F4B
:100C90003AC43EF43BC43FF43CC440F4416F36C414
:100CA00042F4000114DF04013851325D3A6F3751CC
:100CB000335D3B6F385132253C6F3751335D3D6FAB
:100CC0003AC43EF43BC43FF43CC440F4416F36C4E4
:100CD00042F40001FCDE70D00401325137253A6F36
:100CE000335138253B6F3AC44EF44F6F36C450F43D
:100CF000000167DE0401325138253A6F3351372540
:100D00003B6F3AC44EF44F6F36C450F4000159DEC5
:100D100004013751325D3A6F335138253B6F3AC485
:100D20004EF44F6F36C450F400014BDE04013851CD
:100D3000325D3A6F335137253B6F3AC44EF44F6FF3
:100D400036C450F400013DDE0401325138253A6FBB
:100D50003751335D3B6F3AC44EF44F6F36C450F495
:100D600000012FDE0401325137253A6F3851335DCF
:100D70003B6F3AC44EF44F6F36C450F4000121DE8D
:100D800004013751325D3A6F3851335D3B6F3AC4DD
:100D90004EF44F6F36C450F4000113DE0401385195
:100DA000325D3A6F3751335D3B6F3AC44EF44F6F4B
:100DB00036C450F4000105DE040139AF0ED03751BE
:100DC000372B3A6F020E3B6F3AC43CF400013DDD15
:100DD0000150030F0401392711D03751372B3A6FD7
:100DE000385138073A5D3A6F020E3B6F3AC43CF413
:100DF00000012BDD0150050F040139273751800A0E
:100E0000006E3851800A005CD8B404D7D8A002D74D
:100E100000011200040136532EE03451325D05E228
:100E200032C439F434C43AF404D034C439F432C48A
:100E30003AF43551335D05E233C43BF435C43CF438
:100E400004D035C43BF433C43CF439513A5D12E369
:100E50003BC438F438513C5D0BE339C44EF438C41C
:100E60004FF437C450F40001ACDD0401382BF2D745
:100E7000392BEBD72ED032C43EF433C43FF434C404
:100E800040F433C441F437C442F4000120DE32C4DC
:100E90003EF435C43FF434C440F435C441F437C49F
:100EA00042F415DE32C43EF433C43FF432C440F49D
:100EB00035C441F437C442F40ADE34C43EF433C4CA
:100EC0003FF434C440F435C441F437C442F4FFDD88
:100ED00004010001120028A073D0266A26501F08C2
:100EE0006EE3265080090401326F336F000193ECEA
:100EF00002F0800E0401336F000193EC02F0276AC8
:100F000027500F085AE30401536B26C052F4556B67
:100F1000200E546F0001C4EC02F002C003F0015037
:100F2000010F0401326F000E0220336F036A27C0E5
:100F300002F0D89002360336025032270350332392
:100F4000010E3225016E000E3321036E0150280F71
:100F5000E96E000E0320EA6EEFCF32F432C435F4AE
:100F600000012ADD0401536B26C052F4556B200E9C
:100F7000546F0001C4EC02F002C003F00150010FF5
:100F80000401326F000E0220336F036A27C002F0A3
:100F9000D890023603360250322703503323280EEE
:100FA0003225E96E000E3321EA6EEFCF34F434C4FB
:100FB00035F4000101DD272AA3D7262A8FD72890F0
:100FC0001200938A81BA0ED0140E0401336F00010F
:100FD00013EC01F0938A81BA05D004012971938A38
:100FE00081AAFDD7000118EF09F0F86AD09E066AC1
:100FF0000D6A0E6A0F6A106A196AC150C00B0F0998
:10100000C16E070EB46E1168126813681468156813
:101010001668176818689EEF00F027EF01F0A4EC3F
:1010200001F0400E0401396F000108EC01F00401E9
:101030002A6B2ABF03D02A513F0813E3036A2A51BF
:10104000F2CF32F4F29E000162EC00F0040132BFF4
:10105000F28E326F366F000115EC02F004012A2B7C
:10106000E8D72250910806E0000120EF02F034EFAB
:1010700002F004010001A4EC01F021C024F0360EBE
:101080000401326F000198EC02F0300E0401326F5F
:10109000000198EC02F00401326B0001D5EC02F083
:1010A000040129910001A4EC01F02150245C04E02A
:1010B00021C024F012EF03F00401316B3151C70855
:1010C00006E30001C5EF03F00401312BF7D700015F
:1010D000EBEF03F01CD4300E0401336F000193ECEE
:1010E00002F0890E0401336F000193EC02F01F3807
:1010F000006E0F0E00160050300F0401326F356F76
:1011000000015ADC1F500F0B300F0401326F356F96
:10111000000152DC300E0401336F000193EC02F049
:101120008B0E0401336F000193EC02F02038006E47
:101130000F0E00160050300F0401326F356F0001A2
:101140003BDC20500F0B300F0401326F356F000174
:1011500033DC300E0401336F000193EC02F08E0E8D
:101160000401336F000193EC02F02138006E0F0E82
:1011700000160050300F0401326F356F00011CDC87
:1011800021500F0B300F0401326F356F000114DC5A
:10119000040129B127D0360E326F000198EC02F01D
:1011A0000401326B0001D5EC02F0170E0401326F1E
:1011B000280E336F0F0E346F356B010E366F000142
:1011C00021DD580E0401326F1C0E336F780E346F20
:1011D000350E356F366B010E376F00011BDE7BDE7F
:1011E00026D00401360E326F000198EC02F00401A3
:1011F000326B0001D5EC02F00E0E0401326F1C0EB2
:10120000336F230E346F300E356F366B010E376F30
:10121000000100DE690E0401326F260E336F0F0EDF
:10122000346F356B010E366F0001ECDC54DEC9D62D
:041230003AD70300A6
:020000040030CA
:0E00000027CC3E1E0087A1000FC00FE00F406E
:00000001FF
;PIC18F4550
;CRC=E2E9  CREATED="17-Aug-20 13:48"
