:100000007AEF07F0F76A140FF66E000EF722090078
:10001000F5501200C0F9A4B0999282F880908883BC
:10002000C6A1868EF76A340FF66E000EF72209001D
:10003000F55012007FBFDFEFF7FBFDFEF76A4C0FB4
:10004000F66E000EF7220900F550120000010205BD
:100050000304010220030703060602050303060644
:10006000020303040703072020070706060303040F
:10007000000606050304010107202007000602050B
:100080000304000602030304202020202020000691
:1000900002052020202020200720F76AAA0FF66EF4
:1000A000000EF7220900F5501200070F1F1F1F1F37
:1000B0001F1F1F1F1F00000000001C1E1F1F1F1FEF
:1000C0001F1F00000000001F1F1F1F1F1F1F1F1FDB
:1000D0001E1C1F1F1F1F1F1F0F071F1F1F000000B9
:1000E0001F1F1F1F1F1F1F1F1F1FF76AFA0FF66E0C
:1000F000000EF7220900F550120080C094D4474941
:100100004F00504855540000474941590000544899
:100110005500000E956E966E956A8C6804680568A9
:1001200095928C9295908C90086A076A92EF07F0EE
:100130003CC43EF404013D6B3D5107080EE33EBF55
:1001400002D08D9401D08D84969496908D90969047
:100150008D80D8903E373D2BEFD700011200956A75
:100160008C6A04B802D08C9801D08C88959804BC15
:1001700002D08C9C01D08C8C959C04B402D08C94C1
:1001800001D08C84959495928C82D5EF00F010C0AC
:100190003CF4CEDF0FC03CF4CBDF0EC03CF4C8DF34
:1001A0000DC03CF4C5DF0494DAD795968C869596FD
:1001B0008C9695928C92120004013AC40EF00E1E99
:1001C0003BC40DF00D1E0001E2DF12001A801AC0C0
:1001D0003AF439C43BF4F0DF1A901AC03AF439C447
:1001E0003BF4EADF12001A9438C439F4EFDF200E32
:1001F000006E002EFED700D000001200040EEA6E42
:10020000320EE96EEF500DE0060E016E006A002E10
:10021000FED7012EFBD77B0E006E002EFED7EF2EF1
:10022000F3D712001A901A921A841A96380E040103
:10023000386F0001D8DF420E006E002EFED700009E
:100240000C0E0401386F0001CEDF420E006E002E4E
:10025000FED70000010E0401386F0001C4DF020E5A
:100260000401326F0001CADF060E0401386F00017D
:10027000BADF420E006E002EFED7000094EF07F0AA
:10028000080E016E00008A9293920000040131373B
:100290008A90D8B09380D8A09390938281A2FED701
:1002A000012E01D002D00001EDD700008A92939276
:1002B0000000938000000000938281A2FED7016AB3
:1002C000000081B001808A9293928A9093900001FD
:1002D0001200080E0401326F00C033F49380000056
:1002E000938281A2FED781B0D88081A0D8900136B8
:1002F000000093928A92322FF1D7938000008A9067
:100300003351D8A493900000938281A2FED70000BD
:100310008A92939200008A90939000011200938039
:10032000050E006E002EFED79382060E006E002E84
:10033000FED78A909390050E006E002EFED78A920B
:100340009392D00E0401316F00019ADF0401316BEA
:10035000000196DF9380050E006E002EFED793827B
:10036000060E006E002EFED781A2FED78A909390D3
:10037000050E006E002EFED78A929392D10E0401D4
:10038000316F00017DDF010E006EA3DF01C021F09F
:10039000010E006E9EDF01C020F0010E006E99DF9D
:1003A00001C01FF0010E006E94DF01C01EF0010EAF
:1003B000006E8FDF01C01DF0010E006E8ADF01C0EC
:1003C0001CF0010E006E85DF01C01BF0010E006EF7
:1003D00080DF01C023F0006A7CDF01C022F093902F
:1003E0000000938281A2FED7050E006E002EFED77C
:1003F00000D000009380050E006E002EFED7120084
:100400001A8435C439F4E2DE200E006E002EFED7C9
:1004100000D000001200550E216E320E206E160E16
:100420001F6E020E1E6E100E1D6E080E1C6E200E2C
:100430001B6E900E236E226EBCEF07F09380050EAC
:10044000006E002EFED79382060E006E002EFED7A1
:100450008A909390050E006E002EFED78A9293929A
:10046000D00E0401316F00010BDF0401316B00017C
:1004700007DF21C031F404DF20C031F401DF1FC0E9
:1004800031F4FEDE1EC031F4FBDE1DC031F4F8DEB7
:100490001CC031F4F5DE1BC031F4F2DE23C031F4B0
:1004A000EFDE22C031F4ECDE93900000938281A253
:1004B000FED7050E006E002EFED700D00000938000
:1004C000050E006E002EFED7BEEF07F0040136C405
:1004D00010F0101E37C40FF00F1E000158DE12007E
:1004E000258425C036F435C437F4F0DF259425C0C3
:1004F00036F435C437F4EADF1200259832C435F4F7
:10050000EFDF12002580258225942596259A31C497
:1005100032F4F3DF100E006E002EFED700000C0E3A
:100520000401326F0001E9DF100E006E002EFED7CD
:100530000000010E0401326F0001DFDF020E040132
:10054000326F00015BDE060E0401326F0001D5DF61
:10055000100E006E002EFED7000012000401515153
:100560005303F3CF01F0F4CF00F05403F35000260F
:1005700052515303F3500020026E00011200040197
:10058000315303E03369326902D0336B326B266A30
:1005900026501F082EE3276A27500F0828E3526BC6
:1005A00026C051F4546B200E536F0001D7DF02C0F8
:1005B00003F00150010F0401346F000E0220356F6B
:1005C000036A27C002F0D89002360336025034275F
:1005D00003503523280E3425E96E000E3521EA6ECE
:1005E00033C4ECFFED5232C4EFFF272AD5D7262AB9
:1005F000CFD728800001D5EF07F004014E511F0826
:1006000004E2800E4D27200E4E5F4EC426F04D3979
:10061000276E0F0E27164D510F0BFF0A100F506F4C
:100620004F2D35D0526B26C051F4546B200E536FB2
:10063000000194DF02C003F00150010F0401516F6B
:10064000000E0220526F036A27C002F0D8900236D3
:1006500003360250512703505223280E5125016EB4
:10066000000E5221036E01C0E9FFEA6E036A010E1B
:10067000026E5051006E05E0D89002360336002E0F
:10068000FBD70250EF120350EC10EF6E39D0526BD3
:1006900026C051F4546B200E536F00015FDF02C07F
:1006A00003F00150010F0401516F000E0220526F40
:1006B000036A27C002F0D890023603360250512751
:1006C00003505223280E5125016E000E5221036E55
:1006D00001C0E9FFEA6E036A010E026E5051006E1E
:1006E00005E0D89002360336002EFBD70250FF0AF1
:1006F000006EFF0E031A0050EF160350EC14EF6E5D
:10070000288000011200010E0401466F476F4C6BF8
:100710003D513F5D4D6F4D514DAF03D0000ED88020
:100720004D55036A446F03C045F43E51405D4D6F23
:100730004D514DAF03D0000ED8804D55036A426F26
:1007400003C043F43D513F5D01E246693E51405DC7
:1007500001E247694351455D3AE303E14251445D9B
:1007600036E3D890423743374451425D006E4551DD
:10077000435900C048F4496F4451485D4A6F4551A0
:1007800049594B6F455303E14C51445D1FE33DC450
:100790004DF43EC44EF441C44FF400012EDF040179
:1007A00049AF08D0425148274351492346513D257E
:1007B0003D6F0AD04A5148274B51492346513D25A8
:1007C0003D6F47513E253E6F4C2BDCD735D0D8903E
:1007D000443745374251445D006E4351455900C08E
:1007E00048F4496F4251485D4A6F435149594B6F34
:1007F000435303E14C51425D1FE33DC44DF43EC4FD
:100800004EF441C44FF40001F8DE040149AF08D0B2
:10081000445148274551492347513E253E6F0AD050
:100820004A5148274B51492346513D253D6F475179
:100830003E253E6F4C2BDCD700011200006A016A96
:1008400004013A51D8903BB10026003201323BB34B
:100850000026003201323BB50026003201323BB7A0
:100860000026003201323BB90026003201323BBB88
:100870000026003201323BBD0026003201323BBF70
:10088000002600320132000112000401366B33C42D
:1008900037F4010ED8803355386F345361E0365148
:1008A000315D396F375132253A6F365131253B6F03
:1008B000375132253C6F39C43DF43AC43EF43BC451
:1008C0003FF4406F35C441F400011DDF040136518F
:1008D000315D396F3751325D3A6F365131253B6F9B
:1008E0003751325D3C6F39C43DF43AC43EF43BC4E9
:1008F0003FF4406F35C441F4000105DF0401375176
:10090000315D396F365132253A6F375131253B6FA2
:10091000365132253C6F39C43DF43AC43EF43BC4F1
:100920003FF4406F35C441F40001EDDE040137515E
:10093000315D396F3651325D3A6F375131253B6F3A
:100940003651325D3C6F39C43DF43AC43EF43BC489
:100950003FF4406F35C441F40001D5DE70D004018E
:1009600031513625396F325137253A6F39C44DF43C
:100970004E6F35C44FF4000140DE0401315137257C
:10098000396F325136253A6F39C44DF44E6F35C444
:100990004FF4000132DE04013651315D396F3251BE
:1009A00037253A6F39C44DF44E6F35C44FF400010A
:1009B00024DE04013751315D396F325136253A6FEB
:1009C00039C44DF44E6F35C44FF4000116DE0401F6
:1009D00031513725396F3651325D3A6F39C44DF494
:1009E0004E6F35C44FF4000108DE04013151362545
:1009F000396F3751325D3A6F39C44DF44E6F35C49B
:100A00004FF40001FADD04013651315D396F375181
:100A1000325D3A6F39C44DF44E6F35C44FF4000166
:100A2000ECDD04013751315D396F3651325D3A6F7B
:100A300039C44DF44E6F35C44FF40001DEDD0401BE
:100A400038AF0ED03651362B396F020E3A6F39C49B
:100A50003BF40001F3DE0150030F0401382711D0ED
:100A60003651362B396F37513707395D396F020EE2
:100A70003A6F39C43BF40001E1DE0150050F040177
:100A800038273651800A006E3751800A005CD8B48E
:100A900004D7D8A002D700011200258834C435F449
:100AA0001FDD120028A06FD0266A26501F086AE3B7
:100AB000265080090401316F326F00011EDD800E67
:100AC0000401326F000119DD276A27500F0858E32F
:100AD0000401526B26C051F4546B200E536F000179
:100AE0003DDD02C003F00150010F0401316F000E23
:100AF0000220326F036A27C002F0D8900236033614
:100B00000250312703503223010E3125016E000EB1
:100B10003221036E0150280FE96E000E0320EA6EA9
:100B2000EFCF31F431C434F40001B7DF0401526B6C
:100B300026C051F4546B200E536F00010FDD02C02C
:100B400003F00150010F0401316F000E0220326FDB
:100B5000036A27C002F0D8900236033602503127CC
:100B600003503223280E3125E96E000E3221EA6E41
:100B7000EFCF33F433C434F400018FDF272AA5D735
:100B8000262A93D72890FAEF07F021500F0B036A1B
:100B9000F2CF31F4F29E02EC00F0040131BFF28E8C
:100BA000116E2138006E0F0E00160050036AF2CF4E
:100BB00031F4F29E000102EC00F0040131BFF28E2C
:100BC000126EBF0E136E20500F0B036AF2CF31F47A
:100BD000F29E000102EC00F0040131BFF28E146EAF
:100BE0002038006E0F0E00160050036AF2CF31F469
:100BF000F29E000102EC00F0040131BFF28E156E8E
:100C0000BF0E166E1F500F0B036AF2CF31F4F29E27
:100C1000000102EC00F0040131BFF28E176E1F38A4
:100C2000006E0F0E00160050036AF2CF31F4F29EF0
:100C3000000102EC00F0040131BFF28E186E0001D9
:100C400002EF08F0956A8C6A05BC02D08C9C01D03A
:100C50008C8C959C05B802D08C9801D08C88959886
:100C600005B402D08C9401D08C84959495908C809E
:100C70001200036A04013251F2CF34F4F29E0001F3
:100C800012EC00F0040134BFF28E016E346F341F99
:100C900034C43CF4000198EC00F0040133C434F493
:100CA000341F34C43CF4000198EC00F00598CADF0E
:100CB000959A8C8A959A8C9A95908C909FEF06F0D5
:100CC000040131C433F4331F33C43CF4000198EC05
:100CD00000F0040132C433F4331F33C43CF4000188
:100CE00098EC00F00598AEDF959A8C8A959A8C9ACC
:100CF00095908C9081EF06F0040131693269000112
:100D0000DFD7A5EF06F0196A1950070820E3036A38
:100D10001950110FE96E000E0320EA6EEF3C01D06E
:100D200014D0036A1950110FE96E000E0320EA6E09
:100D3000EFCF31F419C032F431C433F49AD7A60E90
:100D4000006E002EFED70000D7D7192ADDD709EF95
:100D500008F0213804012B6F0F0E2B1721500F0BB9
:100D60002A6F20382C6F0F0E2C1720500F0B2D6F71
:100D70001F382F6F0F0E2F171F500F0B2E6F0001F4
:100D80000EEF08F00900F5520DE0F6CF31F4F7CF81
:100D900032F4F5CF35F400EC02F031C4F6FF32C482
:100DA000F7FFF0D71200036A04013551F2CF37F490
:100DB000F29E000175EC00F0040137BFF28E36257B
:100DC000376F386F0001F3EC00F0120032C435F4D5
:100DD00033C436F4E8DF0401296B29BF03D029515D
:100DE00005082EE32951030809E1010E3225346F6D
:100DF000356F33C436F40001D6DF040131C43AF450
:100E0000060E3B6F00011ADD01500401356B346F93
:100E1000036A29513425016E355103220150F2CF66
:100E200034F4F29E00011EEC00F0040134BFF28E97
:100E3000346F356F000100EC02F00401292BCDD78F
:100E400000011200820E0401386F0001F3EC00F083
:100E5000FE0EF66E000EF76E95DF880E0401386FF9
:100E60000001F3EC00F0020EF66E010EF76E8ADF61
:100E70008F0E0401386F0001F3EC00F0080EF66EDF
:100E8000010EF76E7FDF2FC431F4020E0401326FC2
:100E9000336B00019BDF2EC431F4020E0401326F6C
:100EA000030E336F000192DF2CC431F4020E0401F3
:100EB000326F070E336F000189DF2DC431F4020E4B
:100EC0000401326F0A0E336F000180DF2BC431F44E
:100ED000020E0401326F0E0E336F000177DF2AC459
:100EE00031F4020E0401326F110E336F00016EDF18
:100EF0000FEF08F0F86AD09E066A0D6A0E6A0F6A54
:100F0000106A196AC150C00B0F09C16E070EB46E8A
:100F100011681268136814681568166817681868ED
:100F200089EF00F012EF01F08FEC01F0400E0401A8
:100F3000386F0001F3EC00F00401296B29BF03D0E6
:100F400029513F0813E3036A2951F2CF31F4F29E8D
:100F500000014DEC00F0040131BFF28E316F356FAE
:100F6000000100EC02F00401292BE8D72250900880
:100F700006E000010BEF02F01EEF02F00401000199
:100F80008FEC01F021C024F0300E0401316F00011C
:100F900082EC02F0360E0401316F000182EC02F0A7
:100FA0000401316B0001BFEF02F0150E0401316F37
:100FB000200E326F140E336F346B010E356F00014B
:100FC00064DC400E0401316F200E326F140E336F5B
:100FD000346B010E356F000158DC6A0E0401316F6D
:100FE000200E326F140E336F346B010E356F00011B
:100FF0004CDC58D58FEC01F02150245C03E021C07B
:1010000024F0C3D50401306B3051C70805E300015B
:101010007AD60401302BF8D700019BD613D7300EB7
:101020000401326F00017DEC02F0890E0401326F81
:1010300000017DEC02F01F38006E0F0E001600500C
:10104000300F0401316F346F000127DD1F500F0B8B
:10105000300F0401316F346F00011FDD300E0401C9
:10106000326F00017DEC02F08B0E0401326F000143
:101070007DEC02F02038006E0F0E00160050300F8D
:101080000401316F346F000108DD20500F0B300F69
:101090000401316F346F000100DD300E0401326F46
:1010A00000017DEC02F08E0E0401326F00017DEC38
:1010B00002F02138006E0F0E00160050300F0401B0
:1010C000316F346F0001E9DC21500F0B300F040148
:0C10D000316F346F0001E1DC8DD70300AC
:020000040030CA
:0E00000027CC3E1E0087A1000FC00FE00F406E
:00000001FF
;PIC18F4550
;CRC=562D  CREATED="15-Aug-20 14:00"
